:020000040802F0
:10000000E007002449030208BF370208013602084E
:10001000BD370208E913020805420208000000008B
:10002000000000000000000000000000053A020887
:10003000EB13020800000000C1370208073A02086B
:1000400067030208670302086703020867030208E0
:1000500067030208670302086703020867030208D0
:1000600067030208670302086703020867030208C0
:1000700067030208670302086703020867030208B0
:1000800067030208670302086703020867030208A0
:100090006703020867030208670302086703020890
:1000A0006703020867030208670302086703020880
:1000B0006703020867030208670302086703020870
:1000C0006703020867030208670302086703020860
:1000D0006703020867030208670302086703020850
:1000E00067030208670302080000000067030208B4
:1000F0006703020867030208670302086703020830
:10010000670302086703020867030208670302081F
:10011000670302086703020867030208670302080F
:1001200067030208670302086703020867030208FF
:1001300067030208670302086703020867030208EF
:1001400000000000000000000000000000000000AF
:1001500067030208670302086703020867030208CF
:1001600067030208670302086703020867030208BF
:100170006703020867030208670302080000000023
:10018000670302086703020867030208670302089F
:10019000670302086703020867030208670302088F
:1001A000670302086703020867030208670302087F
:1001B000670302086703020867030208670302086F
:1001C000670302086703020867030208670302085F
:1001D000670302086703020867030208670302084F
:1001E000670302086703020867030208670302083F
:1001F000670302086703020867030208670302082F
:10020000670302086703020867030208670302081E
:10021000670302086703020867030208670302080E
:100220006703020867030208670302080000000072
:100230006703020867030208000000006703020862
:1002400067030208670302086703020867030208DE
:1002500067030208670302086703020867030208CE
:1002600067030208670302086703020867030208BE
:100270006703020867030208670302080000000022
:100280006703020867030208670302080000000012
:10029000000000006703020800F002F800F044F8D4
:1002A0000AA090E8000C82448344AAF10107DA45D1
:1002B00001D100F039F8AFF2090EBAE80F0013F0DF
:1002C000010F18BFFB1A43F0010318473441000027
:1002D00054410000103A24BF78C878C1FAD85207B8
:1002E00024BF30C830C144BF04680C6070470000B0
:1002F0000023002400250026103A28BF78C1FBD82F
:10030000520728BF30C148BF0B607047782900F002
:100310002181732900F09B83002070471FB504F0F2
:100320002FF81FBD10B510BD00F0B7FB1146FFF749
:10033000F5FF03F093FF00F0D5FB03B4FFF7F2FFE6
:1003400003BC00F0DDFB00000A4880470A488047F4
:100350000A480047FEE7FEE7FEE7FEE7FEE7FEE7A6
:10036000FEE7FEE7FEE7FEE705480649064A074BBB
:1003700070470000F1130208B53A0208990202081A
:10038000E0010024E0070024E0030024E00300244F
:1003900053EA020C00F069802DE9F04B4FF00006A3
:1003A000002B1FBFB3FA83F503FA05F424FA05F610
:1003B0005E4012BF1643B2FA82F502FA05F4C5F1A7
:1003C00020051EBF22FA05FC44EA0C04203556EA3B
:1003D000044C4FEA144418BF641C4FF000084FF05F
:1003E0000009904271EB030C39D3002919BFB1FA0F
:1003F00081F701FA07F6B0FA80F700FA07F6C7F1BD
:1004000020071EBF20FA07FC46EA0C062037B6FB81
:10041000F4FCA7EB0507103F07F01F0BCBF12006FC
:100420000CFA0BFB2CFA06F644BFB3460026202F2D
:10043000A4BF5E464FF0000B5BEA060C08BF4FF00E
:10044000010B19EB0B09ABFB027C48EB0608C01B48
:1004500006FB02CC0BFB03CC71EB0C01C1E70B4696
:10046000024641464846BDE8F08B13B54FF0000008
:100470004FF00001AFF30080BDE81C407047000062
:100480000FB41CB50C0007AA009001D02044401EF8
:10049000074B7B4469460190069800F0A6FA002CB1
:1004A00003D06946002000F0B3FA1CBC5DF814FBD1
:1004B0008505000070B5044685690068C10601D550
:1004C000302600E02026C00707D070BDD4E9012106
:1004D00030469047206A401C20626D1EF6D570BDE4
:1004E00070B5044685690078C00707D170BDD4E9AE
:1004F000012120209047206A401C20626D1EF6D505
:1005000070BD70B50C460546012A05D028788006D6
:1005100000D5EA69002302E0012305E05B1C934259
:1005200002D2E05C0028F9D1A869E618C01AA861D7
:10053000286A184428622846FFF7BCFF04E0D5E982
:10054000012114F8010B9047B442F8D32846FFF775
:10055000C7FF70BD70B504460D4621461068AFF365
:1005600000802188090502D50F4A7A4402E00E4A2C
:100570007A440E32002104F1240305E000F00F0656
:100580000009965D5E54491C0028F7D120780023AD
:10059000000704D5702D02D009B102231132204684
:1005A000BDE8704000F0C3B9583E00002DE9F05F8F
:1005B000894604464FF0000ADFF874B1FB44C0F8E6
:1005C00020A02046E1688847002874D0252806D05E
:1005D000D4E901219047206A401C2062F1E70026FF
:1005E0005F462046E16888472028054607DB312D15
:1005F00005D2781910F8200C08B10643F1E7B007CE
:1006000001D526F00406C4F81CA00027C4F818A0E1
:100610002A2D09D0284603F019FE38B304EB8708C9
:10062000303DC8F8185019E059F8041B204604EB77
:1006300087029161E1688847012F054618D1E0697A
:10064000002820DA26F020061DE0D8F8180000EB7C
:10065000800005EB40003038C8F818002046E168FB
:100660008847054603F0F2FD0028EED1012F0AD09D
:100670002E2D08D12046E16888477F1C0546022FB1
:1006800046F02006C4DBA069002803DA404246F0A9
:100690000106A061F00701D026F010066C2D0BD0EA
:1006A000682D09D04C2D39D06A2D35D0742D35D018
:1006B0007A2D33D016E038E0E1682F46204688478F
:1006C000B842054609D16C2F26D04FF48060E1680E
:1006D000064320468847054604E06C2F1AD04FF4A5
:1006E000807006430DB3A5F14100192802D82035CA
:1006F00046F400664A462946204626604E46FFF7E5
:1007000005FE80B101280BD0F61D26F0070000F190
:10071000080956E74020E4E78020D8E70020D6E724
:1007200006F104094DE7284652E7206ABDE8F09F2C
:100730002E3E000010B5431C02E010F8011B71B101
:100740008107FAD14FF0013202C88C1A8C4314EAA7
:10075000C211F9D0C01A0A0603D0C01E10BDC01ABB
:1007600010BD0A0401D0801E10BD0902FCD0401E3D
:1007700010BD032A40F2308010F0030C00F0158009
:1007800011F8013BBCF1020F624498BF11F801CB94
:1007900000F8013B38BF11F8013BA2F1040298BFF9
:1007A00000F801CB38BF00F8013B11F0030300F063
:1007B0002580083AC0F0088051F8043B083A51F807
:1007C00004CBA0E80810F5E7121D5CBF51F8043B0C
:1007D00040F8043BAFF30080D20724BF11F8013B7F
:1007E00011F801CB48BF11F8012B24BF00F8013BE1
:1007F00000F801CB48BF00F8012B704710B5203A34
:10080000C0F00B80B1E81850203AA0E81850B1E8C9
:100810001850A0E81850BFF4F5AF5FEA027C24BF7F
:10082000B1E81850A0E8185044BF18C918C0BDE876
:1008300010405FEA827C24BF51F8043B40F8043B3F
:1008400008BF7047D20728BF31F8023B48BF11F8F4
:10085000012B28BF20F8023B48BF00F8012B70474E
:1008600002F0FF0343EA032242EA024200F0F5B835
:100870004FF0000200B5134694469646203922BF39
:10088000A0E80C50A0E80C50B1F12001BFF4F7AF84
:10089000090728BFA0E80C5048BF0CC05DF804EB66
:1008A000890028BF40F8042B08BF704748BF20F8D4
:1008B000022B11F0804F18BF00F8012B7047000089
:1008C0004FF0013C50F8042B51F8043B9A4215D1EB
:1008D000A2EB0C03934313EACC130BD150F8042B77
:1008E00051F8043B9A4209D1A2EB0C03934313EA5B
:1008F000CC13E7D04FF00000704700BFD01A01BA08
:10090000B1FA81F101F0180122FA01F0CB40C1F1F6
:100910002001DBB2C0B2C01A2CFA01F3D11A914304
:1009200011EAC311E6D170477047704770472DE94F
:10093000F0470D4699469246044600F124080168A6
:10094000880604D5E06921F01001216000E0012053
:10095000A84201DD471B00E00027A1697A1902EBDC
:100960000900081AA0612078C00602D42046FFF7CB
:10097000A1FD002608E0D4E901211AF806009047FD
:10098000206A401C761C20624E45F4DB2078C006AD
:100990000AD52046FFF78EFD06E0D4E9012130207C
:1009A0009047206A401C2062381EA7F10107F4DC42
:1009B00007E0D4E9012118F805009047206A401C9F
:1009C0002062281EA5F10105F3DC2046FFF788FD13
:1009D0002078000602D50220BDE8F0870120FBE761
:1009E00001694A1C02610878704700B58FB0CDE9F3
:1009F00001310021059105497944CDE903101146E3
:100A00006846FFF7D3FD0FB000BD0000E5FFFFFF14
:100A10000A6802F8010B0A607047D1E900239A4284
:100A200002D2531C0B601070704710B5436913B1AC
:100A3000AFF3008001E0FFF764FD012010BD1278E4
:100A400000F124010A7000224A700122EDE71168CA
:100A50004FF0FF32E9E74FF000020429C0F01280A6
:100A600010F0030C3FF406AFCCF1040CBCF1020F04
:100A700018BF00F8012BA8BF20F8022BA1EB0C0136
:100A8000FFF7F8BE5FEAC17C24BF00F8012B00F835
:100A9000012B48BF00F8012B7047754600F02CF879
:100AA000AE4605006946534620F00700854618B05B
:100AB00020B5FFF759FCBDE820404FF000064FF08D
:100AC00000074FF000084FF0000B21F00701AC4683
:100AD000ACE8C009ACE8C009ACE8C009ACE8C009A2
:100AE0008D46704710B50446AFF300802046BDE840
:100AF0001040FFF722BC000000487047800100242E
:100B000001491820ABBEFEE7260002007047000036
:100B100070B54FF0FF3210B10A4D00230EE00020F7
:100B200070BDC65C00247240D60702D085EA52022E
:100B300000E05208641C082CF6D35B1C8B42F0D3F7
:100B4000D04370BD2083B8ED70B504001FD0602184
:100B5000FFF78EFE01210E4A002022600B04C4E93B
:100B60000131C4E9031060614FF46025A06129469A
:100B7000084800F025F92946A0624FF0016000F016
:100B80001FF95C21A0632046FFF7C2FFE06570BD3E
:100B90004D41544F0000020810B586B0142101A841
:100BA000FFF766FE0DF1040C0020009002210722E1
:100BB000012320248CE81F0000F000FE0C480B49A4
:100BC0004161C0F8141101A8694600F0F5FC044623
:100BD00000F07CFD07A0214600F044F900990DA02B
:100BE00000F040F906B0204610BD00000000EE17EE
:100BF000002000525B415050315D20657261736589
:100C0000206D6574616461746120737461747573BF
:100C10003D0000005B415050315D2065726173659D
:100C2000206D6574616461746120736563746F72B3
:100C30005F6572726F723D0070B58EB04FF0000448
:100C400005000E46019402940394049405940694BE
:100C5000079474D0102E72D31022014601A8FFF71A
:100C600088FD47490198884269D1BDF80A1001F111
:100C70001000B04206D00023BDF8080009211A4632
:100C800000945AE005F1100661B13046FFF740FFCD
:100C90000499884206D00023BDF8080003211A46B3
:100CA00000944AE0BDF80850A5F58070013809D0DD
:100CB000012807D002281AD003284CD000232A4646
:100CC000009405E0BDF80A0020B1002300941A4604
:100CD000092122E007AA06A905A800F0D7F807987D
:100CE00000210090BDF80800DDE9052325E0BDF8EE
:100CF0000A000894102809940A940B94E5D1102254
:100D0000314608A8FFF735FD0898012807D00228CA
:100D10000AD000230246009404E028460DE0012397
:100D2000024600940521F8E700F082FA48B1BDF8C8
:100D300008000023089A0721009400F0DBFA0EB0A7
:100D400070BD10A000F07EF80B9801230090BDF854
:100D50000800089A0BE0BDF80A000028B5D111A0E0
:100D600000F070F8BDF80800002301220094002173
:100D700000F0C0FA322000F00DFC03F055FA00003C
:100D80004F5441315B415050315D20656E74657246
:100D9000206F7461206279207363726970740D0A28
:100DA000000000005B415050315D207265626F6F42
:100DB00074206279207363726970740D0A000000F8
:100DC00030B502684468A2F10055B5F5003F24F043
:100DD000010310D3A2F11055B5F5002F0BD3A2F1EA
:100DE0004055B5F5902F06D3A2F16052B2F5803F81
:100DF00001D3002030BDE207FBD08342F9D3084481
:100E00009842F6D9012030BD0C4910B5040011D02C
:100E10006022FFF7F3FC0A49206888420AD1606823
:100E2000B0F5803F06D15C212046FFF771FEE16DF1
:100E3000814201D0002010BD012010BD00001E081D
:100E40004D41544F10B50446FFF774FC21464FF056
:100E5000FF33BDE8104082B2014802F079BB0000C8
:100E6000D000002400B599B0034605A201A8009166
:100E70006021FFF705FB01A8FFF7E4FF19B000BDF3
:100E8000257330782530386C580D0A0070B598B04D
:100E900014460D46064660216846FFF7E9FC6846A1
:100EA000FFF7B2FF10B96846FFF74EFE0EB1022001
:100EB000306003AE0E9A96E80B00CEB20A9966F344
:100EC0001F2062F31F4140EA034005B12860002C57
:100ED00000D0216018B070BD0EB5002002AA01A993
:100EE0000090019002906846FFF7D0FF0BA0FFF73B
:100EF000A9FF104910A0FFF7B5FF134913A0FFF792
:100F0000B1FF009916A0FFF7ADFF019918A0FFF7F8
:100F1000A9FF02991AA0FFF7A5FF0EBD5B41505033
:100F2000315D20617070312072756E6E696E670D73
:100F30000A000000000002085B415050315D206251
:100F40006173653D0000000000001E085B415050C9
:100F5000315D206D657461646174613D0000000065
:100F60005B415050315D206D6F64653D00000000B5
:100F70005B415050315D2073746174653D00000029
:100F80005B415050315D2076616C69643D0000002A
:100F900070B5274C274DA16889B130291BD24A1C56
:100FA0006854042AA26025D82348A918104411F8CF
:100FB000011C10F8010C81420CD0002613E04F28D0
:100FC00003D0BDE8704000F003B901212870102261
:100FD000C4E9021270BD00F081F918A019E0A85D03
:100FE00000F0F6F8761CA0688642F8D3BDE87040A1
:100FF00000F074B9102A12D10E48194B6038D0E9AC
:101000001810994202D1000C202806D900F066F988
:1010100014A0BDE87040FFF715BF1030E060E16834
:101020000029D7D08A42D5D30248FFF705FEDDE775
:1010300000000024A00000248A4302085B415050B5
:10104000315D2070726F746F636F6C2062756666BD
:101050006572206F766572666C6F770D0A0000000E
:101060004F5441315B415050315D20696E76616C67
:1010700069642070726F746F636F6C20686561645F
:1010800065720D0A0000000010B504003DD01FA1DC
:10109000FFF716FC002822D01EA12046FFF710FC07
:1010A000E8B11EA12046FFF70BFCD0B11DA12046E0
:1010B000FFF706FCA8B11DA12046FFF701FCA0B177
:1010C0001BA12046FFF7FCFB78B11BA12046FFF7D0
:1010D000F7FB90B11AA0BDE81040FFF7B3BE1FA008
:1010E000F9E7BDE81040FFF7F7BE022000F0A0F8D6
:1010F00008B11EA0EFE726A000E030A0FFF7A2FE97
:10110000322000F047FA03F08FF810BD70696E6767
:101110000000000068656C6C6F000000696E666F0F
:101120000000000071756572790000006F74610045
:1011300075706772616465007265626F6F7400003C
:101140005B415050315D20756E6B6E6F776E206322
:101150006F6D6D616E640D0A000000005B415050C0
:10116000315D20706F6E670D0A0000005B415050CA
:10117000315D206F746120726571756573742073C1
:10118000617665206661696C65640D0A0000000087
:101190005B415050315D206F7461207265717565DF
:1011A00073742061636365707465642C2072657369
:1011B0006574206E6F770D0A000000005B4150508F
:1011C000315D207265626F6F74206E6F770D0A005B
:1011D00070B50E4C0D280E4A4FF00005216807D05F
:1011E0000A2805D03F290BD250544B1C236070BDF8
:1011F0000029FCD006485554FFF746FF256070BD16
:10120000256004A0BDE87040FFF71CBE000000246C
:10121000600000245B415050315D20636F6D6D6153
:101220006E6420746F6F206C6F6E670D0A00000093
:1012300010B598B0044660216846FFF719FB012CF1
:1012400004D0022C02D0012018B010BD6846FFF770
:10125000DBFD10B96846FFF777FC002101204FF451
:101260006024CDE90301059021461248FFF7A8FD4F
:1012700021460A904FF00160FFF7A2FD0E900EA0EC
:10128000FFF7E0FD4FF4803112486C46CDE90001D4
:1012900002985C21401C02902046FFF739FC179011
:1012A000FFF77AFC0028CFD10B486022214600F0DE
:1012B0004DF8C9E7000002085B415050315D206FD6
:1012C00074612072657175657374207361766564ED
:1012D0000D0A00004D41544F00001E080348002134
:1012E0008160C16030210248FFF7C2BA00000024CB
:1012F000A0000024F0B589B0124E00240DF1100CAE
:101300000E9D1027019440F400400294009603942F
:101310008CE82E00ADF8040004A83946ADF806703C
:10132000FFF7F6FB641E0390074810222346694628
:1013300002F00EF90448102204A9234602F008F92D
:1013400009B0F0BD4F544131D00000242DE9F041E7
:101350005FEA0108054614464FF0000608D03CB18C
:1013600000F02CFA164915484861C1F814011BE039
:101370000120BDE8F0811348FF222021FFF770FA19
:10138000202C01D9202700E027460E483A46414646
:10139000FFF7EFF90B4A0120294600F0AFF90600EC
:1013A00004D1E41B2035B844002CE4D100F08EF9C0
:1013B00005A03146FFF756FD3046DAE70000EE178C
:1013C00000200052400000245B415050315D2077E6
:1013D00072697465206D65746164617461207374F1
:1013E000617475733D000000FEE7704772B6FEE75A
:1013F000054805490839026842F00202026008689F
:101400008004FCD5704700000C48025830B5842495
:101410000D4BCD0744EA002007D0DC6824F4E664D5
:10142000DC60DC6814430443DC6089070BD5D3F827
:101430000C1121F4E661C3F80C11D3F80C1111431F
:101440000143C3F80C1130BD00200052CB431D4AAC
:101450009B0720D0CB070AD0D36823F03003D3609A
:10146000D3680343D360D36843F08803D36089070C
:1014700010D5D2F80C1121F03001C2F80C11D2F8BD
:101480000C110143C2F80C11D2F80C0140F0880095
:10149000C2F80C017047D16821F03001D160D2F858
:1014A0000C1121F03001C2F80C11D1680143D16058
:1014B000D2F80C110143C2F80C11906940F01000F1
:1014C00090617047002000522DE9F04704250E4638
:1014D000804600F0BFFA022E814600D1274DDFF88A
:1014E000A0A0284C05EA0A0777B3D4F8100125EA32
:1014F00000004000D0B1012E2AD02349D4F81001B9
:10150000084040F00040410026D020498A6910EA96
:101510000A0F42EA00028A6101D1606103E020F013
:101520000040C4F814010120BDE8F087B8F1FF3F86
:10153000DAD000F08FFAA0EB0901414502D8B8F1EA
:10154000000FD1D10320EFE7206925EA0000D1E7A1
:101550000F4920690840D6E7012E4FF4803007D0AC
:10156000D4F81011C90301D5C4F814010020DBE739
:101570002169C903FAD56061F8E700000400008022
:10158000F0FF10E0002000520000EE9764010024FC
:101590000000EE1770B5044600F05CFA0546601CCA
:1015A00002D004480078044400F054FA401BA042E2
:1015B000FAD370BD100000242DE9F05F04464148C5
:1015C00088460026017D01291AD001220275814634
:1015D000B246C0F818A02079C00706D001214CF20D
:1015E0005030FFF771FF00B10126207980070AD53E
:1015F00002214CF25030FFF767FF20B101265DE079
:101600000220BDE8F09F6EBB20682F4D012807D057
:101610004FF0FF31C8F80010A76840F2047B48E0A3
:1016200061682069FFF712FF2079C0070AD0012105
:101630004CF25030FFF748FF00B10126E86820F077
:101640000800E8602079800738D502214CF250303C
:10165000FFF73AFF00B10126D5F80C0120F0080091
:10166000C5F80C012AE0226938466168FFF7CEFE12
:101670002079C00709D001214CF25030FFF724FF38
:10168000E968064621EA0B01E960207980070BD55D
:1016900002214CF25030FFF717FFD5F80C11064627
:1016A00021EA0B01C5F80C1116B1C8F8007005E06D
:1016B0007F1CD4E902010844B842D4D8304689F8E6
:1016C00014A09EE764010024002000520A48C1686B
:1016D00041F00101C160C168C9070BD0D0F80C11FD
:1016E00041F00101C0F80C11D0F80C01C00701D085
:1016F0000020704701207047002000522DE9F05F64
:101700002C48144608250E46027D012A08D00123E4
:101710000375A1F100621F05BA4204D2012707E058
:101720000220BDE8F09FA6F10161B9420DD2022767
:101730004FF0000A8146C0F818A04CF2503B3946E1
:101740005846FFF7C1FE10B127E00120E9E7DFF8B6
:101750006880012F404623D0D0F80C1141F00201DF
:10176000C0F80C11BFF36F8FBFF34F8F01CC6D1E0C
:1017700015F0FF0501C6F9D1BFF36F8FBFF34F8F8F
:1017800039465846FFF7A0FE012F41460DD0D1F84B
:101790000C2122F00202C1F80C2189F814A0C0E744
:1017A000C16841F00201C160DCE7CA6822F00202B0
:1017B000CA60F2E764010024002000520D480E4A7E
:1017C0000E49C368DB0704D042604160C368DB0791
:1017D0000BD1D0F80C31DB0709D0C0F80421C0F8D8
:1017E0000411D0F80C01C00701D00120704700207F
:1017F000704700000020005223016745AB89EFCD00
:101800002DE9F84F03247D4D00234FF001094FF0DF
:10181000B04B4FF00F0AE9E009FA03F73A4076D0EF
:101820000E7906F00306012E01D0022E18D1D0F851
:1018300008C04FEA430ECE6804FA0EF82CEA080CF2
:1018400006FA0EF646EA0C068660D0F804C00E7959
:101850002CEA070CC6F300169E4046EA0C064660CA
:101860000E79F643B6070BD0C6684FEA43088F6877
:1018700004FA08FC26EA0C0607FA08F73743C760A3
:101880000E7906F00306022E12D1DE080F694FEA28
:10189000437C00EB8606B646366A4FEADC6C0AFAF1
:1018A0000CF807FA0CF726EA08063743CEF8207042
:1018B0000F7906684FEA430807F0030704FA08FCAB
:1018C00007FA08F726EA0C06374307604E6816F455
:1018D000403F1CD04A4E376847F0020737603668F1
:1018E0009F0706F00206009623F0030606F1B046B5
:1018F000B6463F0FD6F80864DFF808810AFA07FCFD
:10190000404526EA0C0603D14FF0000C41E06CE0A4
:10191000DFF8F4C0604502D14FF0010C39E0DFF888
:10192000ECC0604502D14FF0020C32E0DFF8E0C0BD
:10193000604502D14FF0030C2BE0DFF8D8C06045C2
:1019400002D14FF0040C24E0DFF8CCC0604502D196
:101950004FF0050C1DE0DFF8C4C0604502D14FF028
:10196000060C16E0DFF8B8C0604502D14FF0070C56
:101970000FE0DFF8B0C0604502D14FF0080C08E07E
:10198000DFF8A4C0604502D14FF0090C01E04FF030
:101990000A0C0CFA07FC4CEA060CCEF808C44F6897
:1019A000DBF80060FF0226EA020600D516435F4618
:1019B000CBF80060D1F804C0DBF804605FEA8C2C3F
:1019C00026EA020600D516437E606E684F6826EA56
:1019D0000206BF0300D516436E602E684F6826EAE4
:1019E0000206FF0300D516432E605B1C0A6832FA1C
:1019F00003F67FF411AFBDE8F88F000080000058B7
:101A0000F44402580000025800040258000802582A
:101A1000000C025800100258001402580018025816
:101A2000001C02580020025800240258426921EA92
:101A300002030A4043EA0241816170470AB18161B1
:101A400070470904FBE7000001480068000C70477C
:101A50000010005C014880687047000010000024FE
:101A600002488168027811448160704710000024A8
:101A7000032010B500F0C6F801F0A0F80F4A104995
:101A800014681368C4F3032203F00F038A5CC95C73
:101A900002F01F0201F01F01D0400A4A20FA01F1B2
:101AA0001160094908600F2000F010F808B101200A
:101AB00010BD00F079F8002010BD00001844025855
:101AC000B6430208200000241C00002470B50D4D10
:101AD00004462878A0B14FF47A71B1FBF0F00A49BE
:101AE0000968B1FBF0F001F0C6FB48B9102C07D231
:101AF00000222146501E00F065F800206C6070BD89
:101B0000012070BD100000241C000024154BF0B50E
:101B1000083B427813491A600B680A1F23F001033F
:101B20000B6043681360057BC67A827A437B2D077E
:101B3000847B45EA0665C77B90F809C0067A90F871
:101B400000E045EAC24040EA834040EA444040EABF
:101B5000074040EA0C2040EA460040EA0E000860D8
:101B6000F0BD0000A0ED00E0BFF35F8F044800214E
:101B70000368034A23F480330360703211607047B6
:101B800024ED00E0074A40F0010006497032106081
:101B9000086840F480300860BFF34F8FBFF36F8F49
:101BA0007047000024ED00E0054808B5016841F0E9
:101BB00002010160006800F00200009008BD000012
:101BC000F44402580E4BF0B41B680D46C3F30223D5
:101BD000C3F10706042E00D90426191D072901D2D6
:101BE000002300E0DB1E012404FA06F19C40491E9C
:101BF0002940641E994014402143F0BC02F003BB0D
:101C00000CED00E0064900F0070210B54FF6FF04A6
:101C10000868044B204040EA02201843086010BDC9
:101C20000CED00E00000FA05134970B50A68D243D4
:101C3000520705D5096801F00701814213D118E068
:101C40000A6822F0070202430A60FFF703FF0A4D09
:101C50004FF47A760446083D07E000BFFFF7FAFE2E
:101C6000001BB04201D9012070BD2868C043800428
:101C7000F4D4002070BD00000C48025810B500F0EC
:101C800057FF05490968054AC1F30211515C01F08B
:101C90001F01C84010BD000020440258B64302088E
:101CA000494930B5484C0B1D0A68143409681D6851
:101CB000246802F00303C5F30012C1F30531C4F335
:101CC000CC04002914FB02F200EE102AF8EE400AC0
:101CD00075D03F4A9FED3D1AB7EE000A6BB1DFEDBC
:101CE0003D1A012B01D0022B64D002EE101A1168AC
:101CF000F8EE422A81EEA22A21E0334C283C2368E8
:101D00009B0612D5344B246801EE901A1168C4F377
:101D1000C104F8EE612AE34001EE903AC1F30801F4
:101D2000F8EE611A81EEA22A0BE001EE901ADFEDC7
:101D30002B2A00BFF8EE611A116882EEA12AC1F3C6
:101D4000080101EE901A1168F8EE611A40EE811A4E
:101D500071EE800A62EE200AC1F3462101EE101AEC
:101D6000B8EE411A31EE001AC0EE811ABCEEE11A4B
:101D700080ED001A1168C1F3064101EE101AB8EEA9
:101D8000411A31EE001AC0EE811ABCEEE11A80ED64
:101D9000011A1168C1F3066101EE101AB8EE411A7A
:101DA00031EE000A80EE801ABCEEC10A80ED020A14
:101DB00030BD04E001EE901ADFED092ABAE70021F8
:101DC000016041608160F3E7284402580000003957
:101DD000384402580024744A0090D0030024744C04
:101DE00020BCBE4B494930B5484C0B1D0A681C3419
:101DF00009681D68246802F00303C5F30022C1F3DB
:101E00000551C4F3CC04002914FB02F200EE102AA1
:101E1000F8EE400A75D03F4A9FED3D1AB7EE000A32
:101E20006BB1DFED3D1A012B01D0022B64D002EE25
:101E3000101A1168F8EE422A81EEA22A21E0334CF2
:101E4000283C23689B0612D5344B246801EE901A77
:101E50001168C4F3C104F8EE612AE34001EE903A40
:101E6000C1F30801F8EE611A81EEA22A0BE001EE3F
:101E7000901ADFED2B2A00BFF8EE611A116882EE8E
:101E8000A12AC1F3080101EE901A1168F8EE611A57
:101E900040EE811A71EE800A62EE200AC1F34621FB
:101EA00001EE101AB8EE411A31EE001AC0EE811A96
:101EB000BCEEE11A80ED001A1168C1F3064101EE93
:101EC000101AB8EE411A31EE001AC0EE811ABCEEBB
:101ED000E11A80ED011A1168C1F3066101EE101AD2
:101EE000B8EE411A31EE000A80EE801ABCEEC10A4B
:101EF00080ED020A30BD04E001EE901ADFED092A00
:101F0000BAE70021016041608160F3E7284402588C
:101F100000000039404402580024744A0090D00365
:101F20000024744C20BCBE4B2DE9FE4F0546DFF863
:101F3000E48350F8081B0024F64FC943019005F1D3
:101F40002800264608F12408009008011DD4A86E38
:101F500050B1B0F5801F0CD0B0F5001F0ED0B0F519
:101F6000401F1ED001240FE0386840F40030386074
:101F700017E00198022101F025FC03E000980221FE
:101F800001F0B0FC04000CD026462888C043C005F0
:101F900023D4A86D05281ED2DFE800F00C11161B13
:101FA0001B00AA6ED8F8001021F440111143C8F8A4
:101FB0000010EAE7386840F40030386009E0019822
:101FC000002101F0FFFB03E00098002101F08AFCF2
:101FD000044674B100E0012426462888C0438005E9
:101FE00028D4E86D80281ED00CDC90B140280ED19A
:101FF00014E0AA6DD8F8001021F007011143C8F8C9
:102000000010EAE7C02813D0B0F5807F10D001247B
:102010000FE0386840F40030386009E00198002192
:1020200001F0D0FB03E00098002101F05BFC0446C6
:102030009CB126462888DFF8DC92C04309F12C09C0
:1020400040052CD4D5F8A800B0F5800F20D00DDCC9
:10205000A0B1B0F5001F0FD115E0EA6DD8F800105F
:1020600021F4E0711143C8F80010E3E7B0F5C00FA8
:1020700013D0B0F5000F10D001240FE0386840F401
:102080000030386009E00198002101F09BFB03E07B
:102090000098002101F026FC04467CB126462888E1
:1020A000C04300052DD4D5F8AC00B0F1007F21D09D
:1020B0000EDCA8B1B0F1807F10D116E0D5F8A820D1
:1020C000D9F8001021F460011143C9F80010E6E7C7
:1020D000B0F1407F13D0B0F1806F10D001240FE039
:1020E000386840F40030386009E00198002101F0C0
:1020F00069FB03E00098002101F0F4FB044674B191
:1021000026462868C04380011FD4E86CD8B1102847
:102110000FD0202812D0302815D0012414E0D5F893
:10212000AC20D9F8001021F0E0611143C9F800108B
:10213000E7E7386840F40030386004E00198022195
:1021400001F040FB044674B126462888C043C00411
:102150002BD4286EB0F5005F20D00DDCA0B1B0F517
:10216000805F0FD115E06B48EA6C2030016821F0E8
:10217000300111430160E8E7B0F5405F13D0B0F5DE
:10218000804F10D001240FE0386840F400303860F0
:1021900009E00198002101F015FB03E000980021FF
:1021A00001F0A0FB04468CB126462888C043800479
:1021B00029D4686EB0F5403F23D010DC08B3B0F5E9
:1021C000803F14D0B0F5003F0FD115E02A6ED8F84B
:1021D000001021F4E0411143C8F80010E5E7B0F524
:1021E000802F0ED0B0F5A02F0BD001240AE001986B
:1021F000012101F0E7FA03E00098012101F072FBF0
:10220000044694B126462888C04340042AD4D5F811
:10221000B000B0F1405F23D010DC08B3B0F1805FB4
:1022200014D0B0F1005F0FD115E06A6ED8F800103D
:1022300021F4E0211143C8F80010E4E7B0F1804F29
:102240000ED0B0F1A04F0BD001240AE0019801217B
:1022500001F0B8FA03E00098012101F043FB0446C5
:1022600074B126462888C04300041FD4286FD8B113
:10227000B0F1805F0ED0B0F1005F10D0012414E007
:10228000D5F8B020D9F8001021F0E0411143C9F889
:102290000010E7E7386840F40030386004E0019847
:1022A000012101F08FFA044674B126462868C04324
:1022B000C0011ED4A86CD0B101280ED0022811D0C4
:1022C000032814D0012413E02A6FD8F8001021F05D
:1022D00040511143C8F80010E8E7386840F4003076
:1022E000386004E00198022101F06CFA0446ACB1B8
:1022F00026462868DFF81CB0C043ABF11C0B400237
:1023000052D40548016841F480710160FFF7A2FBD7
:10231000824611E02C44025800480258FA48AA6C40
:10232000016821F0030111430160E2E7FFF792FB2E
:10233000A0EB0A00642835D8F4480068C005F5D53C
:102340008CBBDFF8C4A3B5F8B4100AF1240ADAF89C
:10235000000001F4407100F44070884211D0DAF8B6
:102360000010DAF8002021F4407142F48032CAF8FB
:102370000020DAF8002022F48032CAF80020CAF8DF
:102380000010D5F8B400B0F5807F1AD1FFF762FBDA
:10239000029012E0FFF75EFB0299411A41F2883089
:1023A00081420AD9032426462878DFF85CA3C0437B
:1023B0000AF1080AC00721D03CE0DAF800008007E3
:1023C000E8D5D5F8B410C1F30120032858460DD044
:1023D000016821F47C510160B5F8B420DAF80010EE
:1023E000C2F30B021143CAF80010DDE7C84A0368C4
:1023F00002EA111223F47C511143ECE7E86F18282C
:1024000016D005DCA0B1082808D0102804D10AE0B5
:1024100020280DD028280BD001240AE001980121A2
:1024200001F0D0F903E00098012101F05BFA0446C5
:1024300064B126462878C04380071ED4A86F0628BA
:1024400019D2DFE800F0160C11161616EA6FDAF84A
:10245000001021F038011143CAF80010EAE7019892
:10246000012101F0AFF903E00098012101F03AFAEF
:1024700004467CB100E0012426462878C04340078A
:102480001FD4D5F89400062819D2DFE800F0160C06
:1024900011161616AA6FDAF8001021F00701114381
:1024A000CAF80010E9E70198012101F08BF903E077
:1024B0000098012101F016FA0446A4B100E00124BD
:1024C00026462878C04380062BD4D5F89000B0F17A
:1024D000405F24D011DC10B3B0F1805F15D0B0F1B3
:1024E000005F10D116E0D5F89420D9F8001021F043
:1024F00007011143C9F80010E3E7B0F1804F0ED097
:10250000B0F1A04F0BD001240AE00198002101F0A6
:1025100059F903E00098022101F0E4F9044694B16E
:1025200026462878C04340062BD4D5F89C00B0F549
:10253000406F24D011DC10B3B0F5806F15D0B0F52A
:10254000006F10D116E0D5F89020DAF8001021F0D5
:10255000E0411143CAF80010E3E7B0F5805F0ED008
:10256000B0F5A05F0BD001240AE00198002101F032
:1025700029F903E00098022101F0B4F9044694B16E
:1025800026462878C04300062BD4D5F8A000B0F525
:10259000C04F24D011DC10B3B0F5005F15D0B0F5FA
:1025A000804F10D116E0D5F89C20D9F8001021F406
:1025B000E0511143C9F80010E3E7B0F5004F0ED029
:1025C000B0F5204F0BD001240AE00198002101F062
:1025D000F9F803E00098022101F084F9044654B1AF
:1025E00026462878C04300071ED4D5F88400B0F5ED
:1025F000805F0AD00FE0D5F8A020D9F8001021F4B0
:1026000060411143C9F80010EBE70098022101F086
:1026100069F900B10126D5F88420DAF8001021F418
:1026200040511143CAF800102878C043C00613D4A3
:10263000D5F89800B0F5807F05D10098022101F00F
:1026400051F900B10126D5F89820D9F8001021F4ED
:1026500040711143C9F800102868C043000316D424
:10266000D5F8A40038B1B0F5803F09D0B0F5003FEF
:102670000BD001240AE00198002101F0A3F803E047
:102680000098022101F02EF904468CB126462868F4
:10269000C043400322D4D5F88800B0F5801F11D084
:1026A000B0F5001F13D0B0F5401F15D0012414E081
:1026B000D5F8A420D9F8001021F440311143C9F80D
:1026C0000010E4E7386840F40030386004E0009817
:1026D000012101F007F904465CB126462868C04391
:1026E000C00323D4286DA8B1B0F5803F17D00124D2
:1026F0001BE0D5F88820DAF8001021F440111143CE
:10270000CAF80010EAE700004C440258004802589A
:10271000CFFFFF00386840F40030386004E00198D3
:10272000022101F04FF80446E4B126462868C04370
:10273000800005D40098022101F0D4F800B10126F0
:102740002868C04380031BD4D5F88000B0B1B0F531
:10275000807F0FD0B0F5007F10D0B0F5407F0DD056
:1027600001240CE05A482A6D016821F4803111439C
:102770000160DBE7386840F400303860ECB326468F
:102780002868C043C00207D46A6FD8F8001021F04F
:1027900000411143C8F800102868C043C00008D4A5
:1027A000D5F8B820DBF8001021F480411143CBF8B4
:1027B00000102868C043800207D4EA6ED8F80010E1
:1027C00021F080711143C8F800102868C043400010
:1027D0000CD4DBF8001021F40041CBF80010DBF83A
:1027E0000010D5F8BC201143CBF800102868C04376
:1027F00008D437486A6D016800E018E021F04051C4
:10280000114301602868C043000208D4D5F88C2029
:10281000DAF8001021F440011143CAF800102879B9
:102820000024C04300F0010020430AD00FE0D5F897
:102830008020DAF8001021F440711143CAF800102A
:102840009EE70198002100F0BDFF00B106462879FF
:10285000C04300F00200204305D10198012100F09F
:10286000B1FF00B106462879C04300F004002043C0
:1028700005D10198022100F0A5FF00B10646287994
:10288000C04300F00800204305D10098002101F06A
:1028900029F800B106462879C04300F01000204313
:1028A00005D10098012101F01DF800B106462879F4
:1028B000C04300F02000044304D10098022101F03D
:1028C00011F800B916B10120BDE8FE8F0020FBE72A
:1028D0004C4402582DE9F05F04000F467ED0DFF82B
:1028E0003882D8F8000000F00F00B8420CD2D8F8B7
:1028F000001021F00F013943C8F80010D8F800008B
:1029000000F00F00B84269D12078844D40070AD505
:102910002069296801F07001884204D9296821F0F2
:1029200070010143296020787C4E361D00070AD5CE
:102930006069316801F07001884204D9316821F082
:102940007001014331602078C0060AD5A069316862
:1029500001F4E061884204D9316821F4E061014367
:1029600031602078DFF8B4B180060BF1080B0CD58C
:10297000E1695846DBF8002002F07002914204D968
:10298000026822F070020A430260207880070AD5AC
:10299000E068296801F00F01884204D9296821F014
:1029A0000F01014329602078C0073ED05B49A2682F
:1029B0002868183920F47060104328606068022885
:1029C00018D0032819D00968012819D0490700290F
:1029D0004ADADFF848A1AAF1080A00E044E0DAF890
:1029E000002022F007020243CAF80020FFF732F865
:1029F000814612E009688903E9E709688901E6E789
:102A0000C905E4E7FFF726F8A0EB090141F2883099
:102A1000814202D90320BDE8F09F6168DAF8000026
:102A200000F03800B0EBC10FECD1207880070AD558
:102A3000E068296801F00F01884204D2296821F07A
:102A40000F0101432960D8F80010404601F00F0142
:102A5000B9420BD9016821F00F01394301600068C8
:102A600000F00F00B84201D00120D4E720784007E1
:102A70000AD52069296801F07001884204D22968CA
:102A800021F0700101432960207800070AD56069B0
:102A9000316801F07001884204D2316821F0700180
:102AA000014331602078C0060AD5A069316801F47D
:102AB000E061884204D2316821F4E0610143316071
:102AC000207880060CD5E1695846DBF8002002F03A
:102AD0007002914204D2026822F070020A4302603E
:102AE00000F06CF80E492A682B68C2F3032203F049
:102AF0000F038A5CC95C02F01F0201F01F01D04085
:102B0000084A20FA01F11160074908600748006887
:102B1000BDE8F05FFEF7DABF00200052184402580B
:102B2000B6430208200000241C00002414000024E6
:102B300030B500F043F80B4A0B490C4B156814688C
:102B4000C5F3032204F00F048A5C095D02F01F0242
:102B500001F01F01D040064A20FA01F1196010600F
:102B6000084630BD18440258B6430208200000242D
:102B70001C00002400B5FFF7DBFF05490968054A82
:102B8000C1F30211515C01F01F01C84000BD0000FB
:102B90001C440258B643020800B5FFF7C9FF0549B7
:102BA0000968054AC1F30221515C01F01F01C840C8
:102BB00000BD00001C440258B6430208454970B5E8
:102BC00045480968434B103B11F0380208D0011109
:102BD000082A03D0102A0BD0182A0BD0084670BD43
:102BE00019688906FBD51968C1F3C101C84070BDD9
:102BF0003A4870BD3749374D18310C1D24350A68E5
:102C0000096826682D6802F0030406F00102C1F38A
:102C10000511C5F3CC0515FB02F200EE102AB8EE43
:102C2000400AE9B32F4ADFED2E0AB7EE001A6CB165
:102C3000DFED2D1A012C01D0022C43D002EE101A28
:102C40001068F8EE422A81EEA22A1EE01C68A40653
:102C500011D51B6801EE901A1168C3F3C103F8EE99
:102C6000612AD84001EE900AC1F30800F8EE611A1B
:102C700081EEA22A0BE001EE901ADFED1C2A00BFC4
:102C8000F8EE611A106882EEA12AC0F3080001EE86
:102C9000900AF8EE611A40EE201A31EE810A00E047
:102CA00015E022EE000A1068C0F34620401C00EE3A
:102CB000900AF8EE600A80EE201ABCEEC10A10EE0F
:102CC000100A70BD01EE901ADFED092AD8E7002046
:102CD00070BD0000104402580090D00340787D0180
:102CE00000000039304402580024744A0024744C17
:102CF00020BCBE4B2DE9F05F04007DD0FF4F207853
:102D0000FE4D1837DFF8F493103DC00748D0D9F8CE
:102D10000000396800F03800102815D0182803D1B9
:102D200001F0030002280FD06068B0F5803F12D098
:102D300010B1B0F5A02F18D0286820F4803028609A
:102D4000286820F4802009E02868800328D560687E
:102D50000028D2D024E0286840F4803028606068E1
:102D600088B1FEF777FE064609E0286840F4802027
:102D70002860F0E7FEF76EFE801B64286FD8286895
:102D80008003F7D50CE0FEF765FE064605E000BFC0
:102D9000FEF760FE801B6428F0D828688003F7D413
:102DA000207841F20308D54E0C3E800769D5D9F84A
:102DB0000000396810F038000ED0182801D18807BB
:102DC0000AD0E06890B3296821F019010143296015
:102DD000FEF740FE824631E02868400702D5E068F1
:102DE00000288AD0E168286820F01900084328608C
:102DF000FEF730FE824607E0DFE000BFFEF72AFE66
:102E0000A0EB0A000228B9D828684007F6D500BF11
:102E1000FEF71AFE40451BD82069402812D03168C1
:102E200021F47C3141EA003030602AE018E000BF34
:102E3000FEF710FEA0EB0A0002289FD82868400782
:102E4000F6D5E5E7306820F47C3040F40030EBE75D
:102E5000207C316821F0FE4141EA0060E4E70DE1A9
:102E6000286820F001002860FEF7F4FD824605E0A6
:102E7000FEF7F0FDA0EB0A0002288DD82868400775
:102E8000F6D42078C0065DD5D9F80000DFF86CB222
:102E9000396800F03800ABF1040B082810D018286E
:102EA00003D101F0030001280AD0E0690028286856
:102EB00038D040F080002860FEF7CCFD824623E049
:102EC0002868C00523D5E069802876D11FE0206AF4
:102ED000202821D0316821F0F84141EA806030603B
:102EE00030E000BF94F82010DBF8002022F07C5284
:102EF00042EA0161CBF8001024E000BFFEF7AAFD12
:102F0000A0EB0A00022898D82868C005F6D5FEF77D
:102F10009BFD4045E6D8DAE7306820F0F84040F005
:102F20008040DCE720F080002860FEF793FD064635
:102F300005E000BFFEF78EFD801B02289DD82868A3
:102F4000C005F7D42078000729D56C486169643042
:102F500000298046016811D041F001010160FEF7AF
:102F600079FD064605E000BFFEF774FD801B0228D0
:102F7000C9D8D8F800008007F6D510E021F001018B
:102F80000160FEF767FD064605E000BFFEF762FD43
:102F9000801B022872D8D8F800008007F6D4207869
:102FA000800623D5A0690028286810D040F48050FE
:102FB0002860FEF74FFD064605E036E1FEF74AFDC4
:102FC000801B02285AD828688004F7D50EE020F428
:102FD00080502860FEF73EFD064604E0FEF73AFD0D
:102FE000801B02284AD828688004F7D4207840073C
:102FF0004FD5DFF80C81D8F8001041F48071C8F883
:103000000010FEF727FD064605E000BFFEF722FD93
:10301000801B642832D8D8F80000C005F6D5374E9A
:10302000A068603601280AD008B1052813D030689E
:1030300020F001003060306820F0040002E03068C9
:1030400040F001003060A06841F2883A90B1FEF78C
:1030500001FD80460AE0306840F004003060EEE791
:10306000FEF7F8FCA0EB0801514507D8306880074F
:10307000F6D50EE0FEF7EEFC804607E084E000BFE8
:10308000FEF7E8FCA0EB080151457DD830688007C9
:10309000F6D4606AB0B3DFF86480D9F8001008F1A4
:1030A00020084FF6F87B08F10409C1F3C201032997
:1030B000A8F1040A69D00228286820F080702860EE
:1030C00003D0FEF7C7FC044684E0FEF7C3FC0646C7
:1030D00005E000BFFEF7BEFC801B022877D82868F9
:1030E0008001F7D4E26A40F2F331386854F8283F9F
:1030F000884340EA02101843386004E01044025844
:1031000000480258B5E0217B434622894FF4FE0C6B
:10311000208A4FF0FE474902267D521E401EA1F52F
:103120000071C2F308088AB2761E0CEA004042EA37
:1031300008020243504607EA06610A431A60DAF8B9
:10314000002022F00102CAF80020D9F80020266AE7
:1031500022EA0B0242EAC602C9F80020DAF800109F
:10316000A26921F00C011143CAF800100168E2695C
:1031700021F0020111430160016841F480310160D6
:10318000016841F4003101E021E027E001600168BD
:1031900041F480210160016841F00101016028686B
:1031A00040F080702860FEF755FC044605E000BF43
:1031B000FEF750FC001B022809D828688001F7D5CB
:1031C00057E000BFFEF746FC001B022802D903208F
:1031D000BDE8F09F28688001F4D44AE039680128EE
:1031E000D8F8000021D0A26A01F0030393421CD159
:1031F000E26AC1F305118A4217D1216BC0F30802BC
:10320000491E8A4211D1616BC0F34622491E914288
:103210000BD1A16BC0F30642491E914205D1E16B6F
:10322000C0F30660491E814201D00120D0E7A16CA5
:103230004E46D9F80000C0F3CC00814219D0DAF82C
:103240000000554620F00100CAF80000FEF702FC1D
:103250004FEA0007FEF7FEFBB842FBD0A26C3068D5
:1032600020EA0B0040EAC2003060286840F001000C
:1032700028600020ACE7401EB0F1807F10B501D37C
:10328000012010BD4FF0E02460610F21601700F0B5
:10329000BAFF0020A0610721216110BD30B590F870
:1032A0008410012918D0012280F884202421C0F83C
:1032B00088100022202401680B680D6823F0005359
:1032C00025F001050D60426601680B60C0F888407A
:1032D00080F88420104630BD022030BD70B5044611
:1032E00090F8840001281DD0012284F88420242035
:1032F000C4F8880020680568026822F001020260B4
:103300002068826822F060620A438260204600F0F2
:1033100053FC2268202100201560C4F8881084F82E
:10332000840070BD022070BD70B5044690F8840022
:1033300001281DD0012284F884202420C4F88800AC
:1033400020680568026822F0010202602068826835
:1033500022F060420A438260204600F02DFC226881
:10336000202100201560C4F8881084F8840070BD06
:10337000022070BD10B5040003D0D4F8880010B14D
:1033800007E0012010BD002084F88400204600F0F2
:1033900027F82420C4F888002068016821F0010182
:1033A0000160A06A10B1204600F028FC204600F021
:1033B00009FD0128E6D02068416821F49041416070
:1033C0002068816821F02A0181602068016841F04D
:1033D000010101602046BDE8104000F073BC000010
:1033E00010B5B6B00446142130A8FDF741FAC0214B
:1033F0006846FDF73DFA1949206888422BD1002024
:103400001E9002210446CDE900106846FEF78CFDAF
:1034100008B1FDF7EBFF1248016841F4802101601B
:10342000006800F4802035900D480838016841F0AC
:1034300004010160006830AB022100F00400359007
:103440004FF44060072283E81300064830A9CDE915
:103450003342FEF7D5F936B010BD000000480040F9
:10346000E8440258000802582DE9F84F0446D0F805
:103470008C009B4616460D46202802D00220BDE84F
:10348000F88FC5B1BEB10027C4F890702220C4F8EF
:103490008C00E7662034FEF7DDFA824654F8180CFB
:1034A000A6874FF48053E687FF21203C984207D13E
:1034B000226912B119E00120E1E740F2FF1114E0A6
:1034C0004FF07F0278B1B0F1805F11D0A4F8607046
:1034D0009842B4F860704FF0200801D1206970B1B3
:1034E0002E4600250CE0266936B9A4F86010EFE7F7
:1034F000216909B13F21F8E7A4F86020E8E7002638
:1035000007F0FF09B4F85E00F0B100225346202115
:103510002046CDF800B000F02BFE18B1C4F88C8026
:103520000320ACE72068406A56B100EA090006F8BB
:10353000010B00BFB4F85E00401EA4F85E00E1E796
:10354000384025F8020BF5E7C4F88C80002096E798
:103550002DE9F8430446D0F88800984616460D46F3
:10356000202802D00220BDE8F883A5B19EB1002139
:10357000C4F890102120C4F888001834FEF76AFAC5
:10358000814654F8100CA687E6872027183CB0F532
:10359000805F02D003E00120E5E7206910B12E46EC
:1035A000002510E000260EE08021204600F0E0FD1E
:1035B000C0B9DEB116F8010B21688862B4F8560074
:1035C000401EA4F85600B4F856004B464FF00002D7
:1035D000CDF800800028E7D14FF04001204600F0F0
:1035E000C7FD48B1C4F888700320BCE735F8020B6A
:1035F0002168C0F30800E0E7C4F888700020B2E753
:10360000FEE700007FB50024009401940294039427
:10361000FEF7AAFA01258DF80C501F208DF808003E
:1036200087218DF809108DF80D5068468DF80050EF
:103630008DF80A408DF80E408DF8014001948DF808
:103640000B408DF80F40FEF761FA14218DF8081039
:103650008DF80940E8068DF80C4003268DF80A50D5
:103660008DF80D408DF80150019068468DF80B6083
:103670008DF80E50FEF74AFA8DF80C5002200A49D8
:103680000E228DF808208DF80D508DF80100684647
:1036900001918DF80B608DF80E40FEF737FA04208B
:1036A000FEF770FA7FBD0000000004302DE9F04104
:1036B00086B014216846FDF7DBF82348016841F025
:1036C00010010160016801F010010591016841F0ED
:1036D00080010160016801F080010591016841F0FD
:1036E00001010160016801F001010591016841F0EB
:1036F0000401016000680022144F042100F004005E
:1037000005903846FEF79AF9DFF844804FF40066DA
:10371000002231464046FEF791F900246946012512
:1037200004200090CDE9015438460394FEF768F870
:1037300000966946CDE9015440460394FEF760F8CF
:1037400006B0BDE8F0810000E044025800100258C5
:10375000000002581848002110B5164C0C224FF4F6
:10376000E1330460C0E90131C160C0E90412816144
:10377000C161016241628162FFF7FCFD08B1FDF7A2
:1037800035FE0D480021FFF7CFFD08B1FDF72EFEF5
:1037900009480021FFF7A2FD08B1FDF727FE064802
:1037A000FFF77CFD002803D0BDE81040FDF71EBEEA
:1037B00010BD000000480040D0000024FEE7FEE7F6
:1037C000704700002DE9F047454D044689464FF00B
:1037D000000A2868C04380070AD0414E283E30685E
:1037E00020F080603060FEF735F90746B04608E00B
:1037F0000120BDE8F08700BFFEF72CF9C01B0228AE
:1038000067D8D8F800000001F6D4206829684FF482
:10381000FE0721F47C313E0241EA00302860207A24
:10382000A389B4F804C040022D4D2D495B1E227CB3
:10383000ACF1010C1035091DA0F5007080B2521ECC
:10384000CCF3080C07EA034340EA0C00184306EAED
:103850000262104328600868626920F0C0001043CB
:1038600008600A68A06922F0200202430A60281D4D
:103870000A6822F010020A6002684FF6F873E469E1
:103880009A4342EAC40202600868B9F1000F40F0AE
:1038900010020A6011D00868B9F1010F11D040F48C
:1038A00000100860D8F80000444640F08060C8F876
:1038B0000000FEF7CFF805460DE0086840F4002050
:1038C000EFE740F48010ECE7FEF7C4F8401B022855
:1038D00001D903208DE720680001F5D5504688E71F
:1038E000284402582DE9F047454D044689464FF0DB
:1038F000000A2868C04380070AD0414E283E30683D
:1039000020F080503060FEF7A5F80746B04608E08A
:103910000120BDE8F08700BFFEF79CF8C01B02281D
:1039200067D8D8F800008000F6D4208829684FF4C2
:10393000FE0721F07C713E0241EA00502860207AA7
:10394000A389B4F804C040022D4D2D495B1E227C92
:10395000ACF1010C1835091DA0F5007080B2521EA3
:10396000CCF3080C07EA034340EA0C00184306EACC
:103970000262104328600868626920F440601043C6
:1039800008600A68A06922F4007202430A60281DD8
:103990000A6822F480720A6002684FF6F873E469DC
:1039A0009A4342EAC40202600868B9F1000F40F489
:1039B00080720A6011D00868B9F1010F11D040F08F
:1039C00080700860D8F80000444640F08050C8F885
:1039D0000000FEF73FF805460DE0086840F480005F
:1039E000EFE740F40000ECE7FEF734F8401B022854
:1039F00001D903208DE720688000F5D5504688E77F
:103A0000284402587047FEF72BB8000070B59CB0F0
:103A10004C216846FCF72CFF202113A8FCF728FF57
:103A20000220FEF701F9214800242149026842F4EE
:103A30004042026002680A6842F001020A600968B6
:103A400001F001011B9101688904FCD50DF1280CDE
:103A5000022009900521C0228CE80700C6030F90C0
:103A600008250D9001230E90CDE91054CDE90036C4
:103A700068461294FFF73EF908B172B6FEE740209F
:103A80001A903F210301CDE916500322CDE9180316
:103A900013AB13A883E816000421FEF71BFF0028D0
:103AA00001D072B6FEE71CB070BD00001848025885
:103AB0002C0400583548F0B5354A016841F47001CE
:103AC0000160106800F00F00072804D2106820F091
:103AD0000F00C01D10602F4900202E4C10340B68C1
:103AE0002D4D43F001030B6020600B682B400B60F1
:103AF000136803F00F03072B04D9136823F00F0397
:103B0000DB1D1360234C254A1834254B261D371D19
:103B10002060204C234D28343060261D3860371D2E
:103B200023603B1D35601C1D3A60251D2E1D18604D
:103B3000331D22602860326018600A68154B1A4CE9
:103B400022F4802260330A60186020686FF30F004F
:103B5000B0F1005F03D215490120C1F808010D48FA
:103B6000D4300168C9040BD4026843F2D201104B6F
:103B700042F4805202601960016821F480510160B2
:103B800002490C4880390860F0BD000088ED00E073
:103B900000200052004402587FEDF6EA8002010145
:103BA000000202020000FF010010005C00800051D2
:103BB000004000520000020830B5416EB9B1016802
:103BC0000D4B03F108048A688968C2F34262490F09
:103BD0005D5C615C2D01B5FBF1F1A0F86A10995CA8
:103BE000A25C0901B1FBF2F1A0F8681030BD01211F
:103BF000A0F86A10F8E70000A643020890F8281021
:103C0000090706D50168836B4A6822F400421A430B
:103C10004A6090F82810C90706D00168C36A4A684C
:103C200022F400321A434A6090F82810890706D51A
:103C30000168036B4A6822F480321A434A6090F8A4
:103C40002810490706D50168436B4A6822F4802290
:103C50001A434A6090F82810C90606D50168C36B5C
:103C60008A6822F480521A438A6090F828108906E4
:103C700006D50168036C8A6822F400521A438A60F0
:103C800090F82810490611D50168436C4A6822F45F
:103C900080121A434A60416CB1F5801F06D1016859
:103CA000836C4A6822F4C0021A434A6090F82810D4
:103CB000090606D50168C26C486820F4002010434C
:103CC000486070472DE9F84300250446C0F890503D
:103CD000FDF7C0FE8046206820266FF07E47006812
:103CE000000713D50022434631042046009700F018
:103CF0003FFA58B1216851E8000F20F0800041E8F8
:103D00000002002AF6D1C4F8886021E0206800682B
:103D1000400722D5002243464FF4800120460097F9
:103D200000F026FAC8B1206850E8001F21F4907115
:103D300040E80012002AF6D12068083050E8001F41
:103D400021F0010140E80012002AF5D1C4F88C608E
:103D5000032084F88450BDE8F883C4F88860C4F870
:103D60008C60E5662567002084F88450F3E7000046
:103D700010B5026852E8001F21F4907142E8001368
:103D8000002BF6D10E4B0268083252E8001F194092
:103D900042E80014002CF6D1C16E012908D1026856
:103DA00052E8001F21F0100142E80013002BF6D169
:103DB00000212022C0F88C20C166416710BD0000A0
:103DC000FEFFFFEF2DE9F04304468068D84E87B030
:103DD000D84B2168D4E90427D4F81CC010430A68E2
:103DE000002547EA0C073843324002430A60206846
:103DF000E268416821F44051114341602268A169A1
:103E00009A4201D0206A01439768DFF82CC3CB4E59
:103E1000CB4807EA0C070F4397602168676ACA6AB4
:103E200022F00F023A43CA622268B2420ED1006801
:103E300000F03800182873D047DCB8B3082879D0D0
:103E400010286FD178E028287ED17BE0BD498A42D6
:103E500009D1006800F00700062875D2DFE800F0FD
:103E6000546A6C6E7072B8498A4209D1006800F0D9
:103E70000700062868D2DFE800F0475D5F616365F0
:103E8000B2498A4209D1006800F0070006285BD2D7
:103E9000DFE800F03A5052545658AD498A420BD1EF
:103EA000006800F0070006284ED200E010E0DFE8CE
:103EB00000F02B4143454749A6498A420AD1006890
:103EC00000F03800182839D0B7DD2028BBD13CE0FD
:103ED00001203AE0A0498A4209D1006800F00700B9
:103EE000062831D2DFE800F01026282A2C2E9B4924
:103EF0008A420BD1006800F00700062824D2DFE8D0
:103F000000F003191B1D1F2100201EE09A421BD147
:103F10008B48001D006800F00700062814D202E05C
:103F20000CE007E010E0DFE800F0030507090B0DE7
:103F300002200AE0042008E0082006E0102004E047
:103F4000202002E0402000E080208549DFF8148234
:103F50009A42854A4FF400434FEA21174FF000067A
:103F60004ED110281AD006DC022809D004280BD024
:103F700008287CD10DE020283ED0402877D13DE0B4
:103F8000FDF77CFE014610E06846FDF789FE0199C9
:103F90000BE003A8FDF726FF049906E010688006F1
:103FA00005D51068C0F3C100C140002970D0606A17
:103FB000676838F8102007EB4703B1FBF2F0834243
:103FC00055D8B0EB073F52D8002308461946FCF7F6
:103FD000DFF902467808130E120243EA0121101895
:103FE0003A4671410023FCF7D3F9604AA0F54071CD
:103FF00091423CD821688FE03946D8E71946D6E788
:10400000D4F81CC04FF6EF799C4546D1082819D04A
:1040100005DC58B101280CD0042875D10DE010281A
:1040200015D0202835D040286ED134E0FEF7A2FD0F
:1040300001E0FEF7B1FD014610E06846FDF730FEF5
:1040400001990BE003A8FDF7CDFE049906E0106886
:10405000800604D51068C0F3C100C140C1B1636AD5
:10406000606838F81330B1FBF3F1490000E04BE031
:1040700001EB5001B1FBF0F0A0F11001494543D82C
:104080004FF6F0732168C0F342021840104343E03A
:1040900043E03946E3E71946E1E7082819D005DC93
:1040A00058B101280CD004282ED10DE0102815D0CD
:1040B00020282BD0402827D12AE0FEF75BFD01E025
:1040C000FEF76AFD014610E06846FDF7E9FD01993B
:1040D0000BE003A8FDF786FE049906E01068800651
:1040E00004D51068C0F3C100C140B1B1636A606813
:1040F00038F81330B1FBF3F101EB5001B1FBF0F0F4
:10410000A0F11001494505D9012506E03946EDE742
:104110001946EBE7216880B2C8600120A4F86A0064
:10412000A4F8680028466667A66707B0BDE8F08374
:10413000F369FFCF000C0058FFF4FF11001001409D
:10414000544402580044004000480040004C0040E5
:10415000005000400014014000780040007C004006
:104160000090D0038E43020800440258FFFC0F0069
:104170002DE9F047994617460D460446089E4FF034
:10418000000833E0701C31D0FDF764FCA0EB09009F
:10419000B04218D8BEB120680168490726D5802DE5
:1041A00024D0402D22D0C169C94309070DD4082568
:1041B00005622046FFF7DCFDC4F89050012084F82A
:1041C0008480BDE8F0870320FBE7C069C043000599
:1041D0000CD421684FF4006008622046FFF7C8FD48
:1041E0002021C4F8901084F88480ECE72068C0692E
:1041F00035EA000004D00020B842C3D00020E0E738
:104200000120F9E7FEE7090700284FEA116104DB06
:1042100000F1E02080F80014704700F00F0000F17A
:10422000E02080F8141D7047BFF34F8F0548064A01
:10423000016801F4E06111430160BFF34F8F00BFDB
:10424000FDE700000CED00E00400FA0530380A2814
:1042500001D20120704700207047000008B5FFF729
:10426000D1F9FDF705FCFFF7D1FBFFF71FFAFFF7C8
:1042700071FA20491E480860BFF34F8FBFF36F8F5C
:104280001D4D012204212846FDF7D8FB1B480022C2
:104290004FF40061FDF7D2FBFDF7DCFB184C6060CA
:1042A000FDF71CF817A0FCF7CDFD1FA0FCF7CAFD19
:1042B00025A0FCF7C7FD4FF4FA7603E09DF8000057
:1042C000FCF766FE2D48002301226946FFF7CCF873
:1042D0000028F3D0FDF7BEFB6168401AB042F1D36D
:1042E000FDF7B8FB042160602846FDF79FFBE9E776
:1042F0000000020808ED00E000100258000002581B
:10430000000000240D0A5B415050315D2073746140
:10431000727465642066726F6D2030783038303288
:10432000303030300D0A00005B415050315D206369
:104330006F6E74726F6C2070726F746F636F6C202D
:1043400072656164790D0A005B415050315D2074E3
:1043500065787420636F6D6D616E643A2070696E6C
:1043600067207C20696E666F207C206F7461207CE2
:10437000207265626F6F740D0A000000D000002487
:104380004FF04070E1EE100A70474F544131010088
:1043900002000400060008000A000C0010002000C3
:1043A0004000800000010101010307010000080432
:1043B00002040801010100000000010203040102DF
:1043C00003040607080930313233343536373839BB
:1043D0004142434445464030580030313233343551
:1043E00036373839616263646566403078000400AE
:1043F00000080000000000000002000100001000A2
:10440000204402080000002424000000D402020816
:104410004444020824000024BC070000F002020803
:10442000000000000000000000000000000000008C
:104430000100000010000000000000000090D00308
:044440000090D00315
:040000050802029952
:00000001FF
