:020000040800F2
:10000000600700244D0300080D3D00082D3B00084B
:10001000F93C00084D110008594E0008000000008E
:10002000000000000000000000000000154600086D
:100030006111000800000000D143000817460008C5
:100040006B0300086B0300086B0300086B030008D8
:100050006B0300086B0300086B0300086B030008C8
:100060006B0300086B0300086B0300086B030008B8
:100070006B0300086B0300086B0300086B030008A8
:100080006B0300086B0300086B0300086B03000898
:100090006B0300086B0300086B0300086B03000888
:1000A0006B0300086B0300086B0300086B03000878
:1000B0006B0300086B0300086B0300086B03000868
:1000C0006B0300086B0300086B0300086B03000858
:1000D0006B0300086B0300086B0300086B03000848
:1000E0006B0300086B030008000000006B030008AE
:1000F0006B0300086B0300086B0300086B03000828
:100100006B0300086B0300086B0300086B03000817
:100110006B0300086B0300086B0300086B03000807
:100120006B0300086B0300086B0300086B030008F7
:100130006B0300086B0300086B0300086B030008E7
:1001400000000000000000000000000000000000AF
:100150006B0300086B0300086B0300086B030008C7
:100160006B0300086B0300086B0300086B030008B7
:100170006B0300086B0300086B030008000000001D
:100180006B0300086B0300086B0300086B03000897
:100190006B0300086B0300086B0300086B03000887
:1001A0006B0300086B0300086B0300086B03000877
:1001B0006B0300086B0300086B0300086B03000867
:1001C0006B0300086B0300086B0300086B03000857
:1001D0006B0300086B0300086B0300086B03000847
:1001E0006B0300086B0300086B0300086B03000837
:1001F0006B0300086B0300086B0300086B03000827
:100200006B0300086B0300086B0300086B03000816
:100210006B0300086B0300086B0300086B03000806
:100220006B0300086B0300086B030008000000006C
:100230006B0300086B030008000000006B0300085C
:100240006B0300086B0300086B0300086B030008D6
:100250006B0300086B0300086B0300086B030008C6
:100260006B0300086B0300086B0300086B030008B6
:100270006B0300086B0300086B030008000000001C
:100280006B0300086B0300086B030008000000000C
:10029000000000006B03000800F002F800F047F8CF
:1002A0000AA090E8000C82448344AAF10107DA45D1
:1002B00001D100F03CF8AFF2090EBAE80F0013F0DC
:1002C000010F18BFFB1A43F0010318470451000047
:1002D00024510000103A24BF78C878C1FAD85207D8
:1002E00024BF30C830C144BF04680C6070470000B0
:1002F0000023002400250026103A28BF78C1FBD82F
:10030000520728BF30C148BF0B607047752900F005
:100310002381782900F05C81732900F0A2830020FA
:1003200070471FB504F04AFF1FBD10B510BD00F0A7
:10033000BEFB1146FFF7F5FF04F0C4FD00F0DCFB47
:1003400003B4FFF7F2FF03BC00F0E4FB0A48804768
:100350000A4880470A480047FEE7FEE7FEE7FEE757
:10036000FEE7FEE7FEE7FEE7FEE7FEE70548064993
:10037000064A074B7047000069110008C54600088F
:100380009902000860010024600700246003002433
:100390006003002453EA020C00F069802DE9F04B61
:1003A0004FF00006002B1FBFB3FA83F503FA05F4E4
:1003B00024FA05F65E4012BF1643B2FA82F502FA3D
:1003C00005F4C5F120051EBF22FA05FC44EA0C0421
:1003D000203556EA044C4FEA144418BF641C4FF011
:1003E00000084FF00009904271EB030C39D300294B
:1003F00019BFB1FA81F701FA07F6B0FA80F700FAEF
:1004000007F6C7F120071EBF20FA07FC46EA0C06D4
:100410002037B6FBF4FCA7EB0507103F07F01F0BD6
:10042000CBF120060CFA0BFB2CFA06F644BFB346C0
:100430000026202FA4BF5E464FF0000B5BEA060C9F
:1004400008BF4FF0010B19EB0B09ABFB027C48EB2B
:100450000608C01B06FB02CC0BFB03CC71EB0C01A6
:10046000C1E70B46024641464846BDE8F08B13B54E
:100470004FF000004FF00001AFF30080BDE81C40DA
:10048000704700000FB41CB50C0007AA009001D003
:100490002044401E074B7B4469460190069800F0BB
:1004A000AEFA002C03D06946002000F0BBFA1CBC59
:1004B0005DF814FB9505000070B504468569006879
:1004C000C10601D5302600E02026C00707D070BD48
:1004D000D4E9012130469047206A401C20626D1EFD
:1004E000F6D570BD70B5044685690078C00707D1A0
:1004F00070BDD4E9012120209047206A401C206271
:100500006D1EF6D570BD70B50C460546012A05D0A6
:100510002878800600D5EA69002302E0012305E07F
:100520005B1C934202D2E05C0028F9D1A869E6186E
:10053000C01AA861286A184428622846FFF7BCFF41
:1005400004E0D5E9012114F8010B9047B442F8D337
:100550002846FFF7C7FF70BD2DE9F041064600248D
:1005600010687529314616A510D0AFF30080002819
:1005700002DA404213A507E031688A0701D512A5C7
:1005800002E0490704D511A5012401E0AFF3008082
:1005900000210A2206F1240709E0B0FBF2FCB0FBBF
:1005A000F2F302FB1C00303078541846491C002836
:1005B000F3D123462A463046BDE8F04100F0C0B9E9
:1005C000000000002D0000002B00000020000000B3
:1005D00070B504460D4621461068AFF300802188AF
:1005E000090502D50F4A7A4402E00E4A7A440E32D7
:1005F000002104F1240305E000F00F060009965DD8
:100600005E54491C0028F7D120780023000704D548
:10061000702D02D009B1022311322046BDE870408E
:1006200000F08EB9144C00002DE9F05F89460446B5
:100630004FF0000ADFF874B1FB44C0F820A0204658
:10064000E1688847002874D0252806D0D4E9012124
:100650009047206A401C2062F1E700265F46204652
:10066000E16888472028054607DB312D05D2781937
:1006700010F8200C08B10643F1E7B00701D526F0C9
:100680000406C4F81CA00027C4F818A02A2D09D01D
:10069000284604F00FFC38B304EB8708303DC8F857
:1006A000185019E059F8041B204604EB87029161A9
:1006B000E1688847012F054618D1E069002820DA53
:1006C00026F020061DE0D8F8180000EB800005EBAE
:1006D00040003038C8F818002046E16888470546D1
:1006E00004F0E8FB0028EED1012F0AD02E2D08D10E
:1006F0002046E16888477F1C0546022F46F0200609
:10070000C4DBA069002803DA404246F00106A0617C
:10071000F00701D026F010066C2D0BD0682D09D003
:100720004C2D39D06A2D35D0742D35D07A2D33D05B
:1007300016E038E0E1682F4620468847B842054673
:1007400009D16C2F26D04FF48060E1680643204623
:100750008847054604E06C2F1AD04FF4807006439A
:100760000DB3A5F14100192802D8203546F40066E2
:100770004A462946204626604E46FFF7C7FD80B10F
:1007800001280BD0F61D26F0070000F1080956E7F6
:100790004020E4E78020D8E70020D6E706F10409EE
:1007A0004DE7284652E7206ABDE8F09FEA4B00007B
:1007B00010B5431C02E010F8011B71B18107FAD19A
:1007C0004FF0013202C88C1A8C4314EAC211F9D0DE
:1007D000C01A0A0603D0C01E10BDC01A10BD0A04FC
:1007E00001D0801E10BD0902FCD0401E10BD032A9E
:1007F00040F2308010F0030C00F0158011F8013B3E
:10080000BCF1020F624498BF11F801CB00F8013B24
:1008100038BF11F8013BA2F1040298BF00F801CBE8
:1008200038BF00F8013B11F0030300F02580083ABF
:10083000C0F0088051F8043B083A51F804CBA0E816
:100840000810F5E7121D5CBF51F8043B40F8043B6B
:10085000AFF30080D20724BF11F8013B11F801CBA0
:1008600048BF11F8012B24BF00F8013B00F801CB71
:1008700048BF00F8012B704710B5203AC0F00B803C
:10088000B1E81850203AA0E81850B1E81850A0E894
:100890001850BFF4F5AF5FEA027C24BFB1E81850EE
:1008A000A0E8185044BF18C918C0BDE810405FEA5E
:1008B000827C24BF51F8043B40F8043B08BF7047DA
:1008C000D20728BF31F8023B48BF11F8012B28BFDF
:1008D00020F8023B48BF00F8012B704702F0FF03ED
:1008E00043EA032242EA024200F0C1B84FF000029C
:1008F00000B5134694469646203922BFA0E80C5016
:10090000A0E80C50B1F12001BFF4F7AF090728BFF0
:10091000A0E80C5048BF0CC05DF804EB890028BF6C
:1009200040F8042B08BF704748BF20F8022B11F095
:10093000804F18BF00F8012B704770477047704711
:100940002DE9F0470D4699469246044600F12408E9
:100950000168880604D5E06921F01001216000E0FB
:100960000120A84201DD471B00E00027A1697A1998
:1009700002EB0900081AA0612078C00602D42046C4
:10098000FFF79AFD002608E0D4E901211AF80600D5
:100990009047206A401C761C20624E45F4DB20788C
:1009A000C0060AD52046FFF787FD06E0D4E90121FD
:1009B00030209047206A401C2062381EA7F10107B2
:1009C000F4DC07E0D4E9012118F805009047206A1B
:1009D000401C2062281EA5F10105F3DC2046FFF72C
:1009E00081FD2078000602D50220BDE8F0870120B5
:1009F000FBE7000001694A1C02610878704700B5F6
:100A00008FB0CDE901310021059105497944CDE947
:100A1000031011466846FFF707FE0FB000BD000047
:100A2000E5FFFFFF0A6802F8010B0A607047D1E991
:100A300000239A4202D2531C0B601070704710B50D
:100A4000436913B1AFF3008001E0FFF75CFD0120C3
:100A500010BD127800F124010A7000224A700122B0
:100A6000EDE711684FF0FF32E9E74FF0000204298B
:100A7000C0F0128010F0030C3FF43AAFCCF1040C3C
:100A8000BCF1020F18BF00F8012BA8BF20F8022B01
:100A9000A1EB0C01FFF72CBF5FEAC17C24BF00F87B
:100AA000012B00F8012B48BF00F8012B7047754659
:100AB00000F02CF8AE4605006946534620F00700CA
:100AC000854618B020B5FFF751FCBDE820404FF037
:100AD00000064FF000074FF000084FF0000B21F028
:100AE0000701AC46ACE8C009ACE8C009ACE8C009F5
:100AF000ACE8C0098D46704710B50446AFF30080DE
:100B00002046BDE81040FFF71BBC000000487047BE
:100B10000001002401491820ABBEFEE726000200B8
:100B20007047000010B504001FD0216900291CD0B7
:100B300000F05CF968B10DA004F080F9206900F0C4
:100B40008BF804F07BF910A004F078F92069E060DC
:100B500004E00EA004F072F90820A06100202061DA
:100B60002046BDE8104003F087B910BD5B424F4FEF
:100B7000545D206170706C792073776974636820AC
:100B8000736C6F743A2000000D0A00005B424F4FF7
:100B9000545D2070656E64696E6720737769746355
:100BA0006820736C6F7420696E76616C69640D0ADD
:100BB00000000000044610A004F040F90121204686
:100BC00003F006FB01280FD0184C4FF40065184EB7
:100BD0000421204601F08EF82946304601F08AF8BB
:100BE000C82000F083FDF3E712A004F027F91420D9
:100BF00000F07CFD04F04CF95B424F4F545D206ED9
:100C00006F20626F6F7461626C6520696D616765EA
:100C10002C20656E746572207265636F76657279DB
:100C2000206F7461206D6F64650D0A00001002581A
:100C3000000002585B424F4F545D206F7461207377
:100C40007563636573732C207265626F6F74206EB9
:100C50006F770D0A00000000012803D0022803D09E
:100C600002A0704703A0704704A070474E4F4E4546
:100C7000000000004150503100000000415050324F
:100C8000000000002DE9FC41040047D0012103F0E1
:100C900041F84FF460252248294600F05FFC0746E2
:100CA00029464FF0016000F059FC0025064601215D
:100CB0002B46CDE900572A46204603F02BF90023A6
:100CC000204602211A46CDE9005603F023F917B950
:100CD0000EB1022000E00120E06012A004F0AEF8A6
:100CE000E068FFF7B9FF04F0A9F81AA004F0A6F82D
:100CF00019A0394600F092F821A0314600F08EF894
:100D0000256120466561A56103F0B6F820B126A0F3
:100D1000BDE8FC4104F092B82CA0F9E7BDE8FC81E5
:100D2000000002085B424F4F545D206465666175A8
:100D30006C74206D657461646174612073656C65A9
:100D400063742061637469766520736C6F743A20F4
:100D5000000000000D0A00005B424F4F545D20640C
:100D6000656661756C74206D657461646174612081
:100D7000617070315F76616C69643A200000000038
:100D80005B424F4F545D2064656661756C74206DE5
:100D90006574616461746120617070325F76616C4A
:100DA00069643A20000000005B424F4F545D206FA1
:100DB0007461206D6574616461746120736176652E
:100DC000206661696C65640D0A0000005B424F4F4C
:100DD000545D206F7461206D65746164617461207D
:100DE000637265617465640D0A00000070B50D469C
:100DF00088B102F0ADFF70B1284600F097FB0446C1
:100E0000284600F0A1FB01462CB121B12046BDE8E7
:100E1000704000F0A3BB002070BD000000B595B08D
:100E2000034605A201A800915021FFF72BFB01A862
:100E300004F004F815B000BD257330782530386C07
:100E4000580D0A0010B50121044600F04FF8204665
:100E5000BDE81040022100F049B8000030B50400A0
:100E6000B7B02BD02069FFF7F7FE0546E068FFF723
:100E7000F3FE04F110010DF10C0C0EC902958CE883
:100E80000E00E1680E4ACDE90001A368C02106A862
:100E9000FFF7F8FA06A803F0D1FFE26AE169A06B58
:100EA0008DE80700074AC021A36A06A8FFF7EAFAFF
:100EB0000DF1180003F0C2FF37B030BD02A0F9E712
:100EC000D8520008845200085B424F4F545D206D99
:100ED0006574616461746120706F696E74657220FD
:100EE0006973206E756C6C0D0A0000002DE9F043EB
:100EF00000248046ADB08946084600F017FB07463F
:100F0000484600F021FB05460146384600F026FB26
:100F10000646B8F1000003D0494602F019FF044626
:100F20004846FFF799FE084AA021CDE90064CDE9C3
:100F30000275034604A8FFF7A5FA04A803F07EFF94
:100F40002DB0BDE8F0830000385200082DE9FC41C7
:100F500004004FF000063AD0A06A00254FF4602745
:100F600068B11C48394600F0F9FA40B90023204620
:100F700001211A460095019502F0CCFF0126A06BD5
:100F800070B14FF00160394600F0E8FA40B9002333
:100F9000204602211A460095019502F0BBFF01266A
:100FA000E16829B12046FFF721FF08B90126E56075
:100FB000216919B12046FFF719FF30B1002E06D084
:100FC0002046BDE8FC4102F057BF2561F8E7BDE8C7
:100FD000FC8100000000020870B5050017D0012157
:100FE00002F08AFF044620A003F028FF2046FFF706
:100FF00033FE03F023FF22A003F020FF2146284602
:10100000FFF7F4FE28B11FA003F018FF22E0002034
:1010100070BD25A003F012FF012C1DD0022C1DD0A5
:1010200000242FA003F00AFF2046FFF715FE03F06F
:1010300005FF13A003F002FF21462846FFF7D6FE66
:1010400070B12DA003F0FAFE0020C5E90340284648
:1010500002F012FF204670BD0224E2E70124E0E71F
:101060002EA003F0EBFED2E75B424F4F545D2070A1
:10107000726566657272656420736C6F743A2000E5
:101080000D0A00005B424F4F545D2070726566652B
:101090007272656420736C6F7420697320626F6F65
:1010A0007461626C650D0A005B424F4F545D2070A5
:1010B000726566657272656420736C6F7420697303
:1010C000206E6F7420626F6F7461626C652C207487
:1010D000727920616C7465726E6174650D0A00002E
:1010E0005B424F4F545D20616C7465726E61746534
:1010F00020736C6F743A20005B424F4F545D206147
:101100006C7465726E61746520736C6F74206973A2
:1011100020626F6F7461626C650D0A005B424F4F15
:10112000545D20616C7465726E61746520736C6FC0
:101130007420697320616C736F206E6F7420626F0E
:101140006F7461626C650D0A0000000001A000F080
:10115000DDF8FEE74275734661756C7400000000AF
:10116000704772B6FEE70000054805490839026875
:1011700042F00202026008688004FCD5704700005B
:101180000C48025830B584240D4BCD0744EA0020AA
:1011900007D0DC6824F4E664DC60DC6814430443B4
:1011A000DC6089070BD5D3F80C1121F4E661C3F894
:1011B0000C11D3F80C1111430143C3F80C1130BDCD
:1011C00000200052CB431D4A9B0720D0CB070AD0FA
:1011D000D36823F03003D360D3680343D360D3686C
:1011E00043F08803D360890710D5D2F80C1121F0A1
:1011F0003001C2F80C11D2F80C110143C2F80C11E5
:10120000D2F80C0140F08800C2F80C017047D16898
:1012100021F03001D160D2F80C1121F03001C2F878
:101220000C11D1680143D160D2F80C110143C2F80E
:101230000C11906940F0100090617047002000523E
:101240002DE9F04704250E46804600F067FD022E8A
:10125000814600D1274DDFF8A0A0284C05EA0A07F7
:1012600077B3D4F8100125EA00004000D0B1012E78
:101270002AD02349D4F81001084040F00040410032
:1012800026D020498A6910EA0A0F42EA00028A61E0
:1012900001D1606103E020F00040C4F81401012096
:1012A000BDE8F087B8F1FF3FDAD000F037FDA0EBE2
:1012B0000901414502D8B8F1000FD1D10320EFE771
:1012C000206925EA0000D1E70F4920690840D6E7E8
:1012D000012E4FF4803007D0D4F81011C90301D586
:1012E000C4F814010020DBE72169C903FAD5606165
:1012F000F8E7000004000080F0FF10E0002000523A
:101300000000EE97A80000240000EE1710B5114C65
:10131000ACB0104A231F103A2468111D1B681268D4
:1013200009688DE81E000C4AA021034604A8FFF7B7
:10133000A9F80A4804AC0068002808D02046FFF746
:1013400037FA82B205486423214602F097FB2CB09D
:1013500010BD000038ED00E03053000814000024F8
:1013600070B54FF0FF3210B10A4D00230EE000209F
:1013700070BDC65C00247240D60702D085EA5202D6
:1013800000E05208641C082CF6D35B1C8B42F0D39F
:10139000D04370BD2083B8EDFFF7E2BF05A010B5C4
:1013A00003F04CFD01220721BDE81040022000F0AF
:1013B00015B800005B424F4F545D20657261736544
:1013C000206D6574616461746120736563746F720C
:1013D0002073746172740D0A0000000070B5A8B02B
:1013E00014460D460646142103A8FFF77FFA202174
:1013F000059500200290CDE90306CDE9064100F0F5
:1014000089FA0E490C484861C1F8140102A903A8E1
:1014100000F07EF9044600F005FA029908A30FA235
:1014200008A8CDE900418021FFF72CF808A803F0B7
:1014300005FD28B0204670BD0000EE1700200052C8
:101440005B424F4F545D20666C617368206572612A
:10145000736520726573756C742000002573737456
:10146000617475733D256C7520736563746F725F6D
:101470006572726F723D30782530386C580D0A00F5
:10148000012810B506D002280BD00BA003F0D6FC23
:10149000012010BD13A003F0D1FC07220121084652
:1014A00005E019A003F0CAFC072200210220BDE8D4
:1014B0001040FFF793BF00005B424F4F545D206523
:1014C0007261736520736C6F74206661696C65640A
:1014D0003A20696E76616C696420736C6F740D0AD2
:1014E000000000005B424F4F545D206572617365E0
:1014F000204150503120736C6F7420736563746F9A
:1015000072730D0A000000005B424F4F545D20656E
:1015100072617365204150503220736C6F74207378
:101520006563746F72730D0A00000000012803D018
:10153000022803D000207047024870474FF0016036
:10154000704700000000020801284FF4602103D01A
:10155000022801D0002070470846704730B5026865
:101560004468A2F10055B5F5003F24F0010310D303
:10157000A2F11055B5F5002F0BD3A2F14055B5F5EA
:10158000902F06D3A2F16052B2F5803F01D3002024
:1015900030BDE207FBD08342F9D308449842F6D924
:1015A000012030BD2DE9F047824615465FEA01096A
:1015B0005746A2B016464FF0000408D03DB100F0E7
:1015C000A9F91C491A484861C1F814011EE001201C
:1015D00022B0BDE8F0871848FF222021FFF77EF9EE
:1015E000202E01D9202000E03046494680460246A0
:1015F0001148FFF7FCF8104A0120394600F02AF99B
:10160000040005D12037C144A6EB0806002EE2D124
:1016100000F008F980215346CDE9005407A202A842
:10162000FEF730FF02A803F009FC2046D0E70000D7
:101630000000EE1700200052E00000245B424F4FF4
:10164000545D20666C6173682077726974652061EF
:101650006464723D30782530386C58206C656E3D7E
:10166000256C75207374617475733D256C750D0A56
:1016700000000000164B70B5191D154A0C1D1548C9
:10168000251D1860183200201860134E131D0E60BF
:10169000086040F271212160291D104E206018243D
:1016A0002E6028600C600C1D08600D492160191D1A
:1016B00020604FF49B740B4D14600B4C10601D6048
:1016C00018600C60086000F0D3FB002070BD0000C3
:1016D0007C4402583150010023C0000AFF07280350
:1016E000FFC3FFE83330D731AADE200070B50446CF
:1016F00000F014FB0546601C02D004480078044446
:1017000000F00CFB401BA042FAD370BD0000002487
:101710002DE9F05F0446414888460026017D0129F5
:101720001AD0012202758146B246C0F818A020796D
:10173000C00706D001214CF25030FFF781FD00B107
:101740000126207980070AD502214CF25030FFF79C
:1017500077FD20B101265DE00220BDE8F09F6EBB61
:1017600020682F4D012807D04FF0FF31C8F8001036
:10177000A76840F2047B48E061682069FFF722FD1A
:101780002079C0070AD001214CF25030FFF758FDF4
:1017900000B10126E86820F00800E86020798007A1
:1017A00038D502214CF25030FFF74AFD00B1012636
:1017B000D5F80C0120F00800C5F80C012AE02269D8
:1017C00038466168FFF7DEFC2079C00709D00121A7
:1017D0004CF25030FFF734FDE968064621EA0B0170
:1017E000E960207980070BD502214CF25030FFF7D9
:1017F00027FDD5F80C11064621EA0B01C5F80C119E
:1018000016B1C8F8007005E07F1CD4E90201084455
:10181000B842D4D8304689F814A09EE7A800002426
:10182000002000520A48C16841F00101C160C1684E
:10183000C9070BD0D0F80C1141F00101C0F80C1110
:10184000D0F80C01C00701D000207047012070477C
:10185000002000522DE9F05F2C48144608250E4662
:10186000027D012A08D001230375A1F100621F0542
:10187000BA4204D2012707E00220BDE8F09FA6F19A
:101880000161B9420DD202274FF0000A8146C0F82B
:1018900018A04CF2503B39465846FFF7D1FC10B126
:1018A00027E00120E9E7DFF86880012F404623D0D8
:1018B000D0F80C1141F00201C0F80C11BFF36F8F8A
:1018C000BFF34F8F01CC6D1E15F0FF0501C6F9D196
:1018D000BFF36F8FBFF34F8F39465846FFF7B0FC09
:1018E000012F41460DD0D1F80C2122F00202C1F89F
:1018F0000C2189F814A0C0E7C16841F00201C16061
:10190000DCE7CA6822F00202CA60F2E7A8000024FD
:10191000002000520D480E4A0E49C368DB0704D070
:1019200042604160C368DB070BD1D0F80C31DB07A4
:1019300009D0C0F80421C0F80411D0F80C01C00788
:1019400001D00120704700207047000000200052A5
:1019500023016745AB89EFCD2DE9F04F4F4D0022B4
:101960004FF0010A4FF00F0B92E000BF0AFA02F9A4
:1019700019EA01037ED022F0030606F1B04694076F
:10198000D6F808C4270FDFF818810BFA07FE404588
:101990000EEA0C0402D14FF0000C40E0DFF804C165
:1019A000604502D14FF0010C39E0DFF8FCC0604522
:1019B00002D14FF0020C32E0DFF8F0C0604502D1F6
:1019C0004FF0030C2BE0DFF8E8C0604502D14FF088
:1019D000040C24E0DFF8DCC0604502D14FF0050CB8
:1019E0001DE0DFF8D4C0604502D14FF0060C16E0D0
:1019F000DFF8C8C0604502D14FF0070C0FE0DFF8F8
:101A0000C0C0604502D14FF0080C08E0DFF8B4C058
:101A1000604502D14FF0090C01E04FF00A0C0CFABE
:101A200007FCA44513D12C689C432C606F684FF0D1
:101A3000B0449F436F6067689F43676027689F4318
:101A40002760D6F8084424EA0E04C6F8084407685C
:101A50000323D4084FEA42084FEA427C03FA08F312
:101A60004FEADC6C1F4307600BFA0CF600EB8404B2
:101A7000276A00E00BE0B7432762C4689C43C46058
:101A8000446824EA0904446084689C438460521CCE
:101A900031FA02F37FF46AAFBDE8F08F800000589E
:101AA000000002580004025800080258000C0258B6
:101AB000001002580014025800180258001C025866
:101AC00000200258002402582DE9F84F03247D4DD0
:101AD00000234FF001094FF0B04B4FF00F0AE9E03F
:101AE00009FA03F73A4076D00E7906F00306012E84
:101AF00001D0022E18D1D0F808C04FEA430ECE68AC
:101B000004FA0EF82CEA080C06FA0EF646EA0C0661
:101B10008660D0F804C00E792CEA070CC6F30016D4
:101B20009E4046EA0C0646600E79F643B6070BD097
:101B3000C6684FEA43088F6804FA08FC26EA0C06D8
:101B400007FA08F73743C7600E7906F00306022E3E
:101B500012D1DE080F694FEA437C00EB8606B646D9
:101B6000366A4FEADC6C0AFA0CF807FA0CF726EA38
:101B700008063743CEF820700F7906684FEA43080D
:101B800007F0030704FA08FC07FA08F726EA0C0630
:101B9000374307604E6816F4403F1CD04A4E376802
:101BA00047F00207376036689F0706F00206009686
:101BB00023F0030606F1B046B6463F0FD6F8086498
:101BC000DFF808810AFA07FC404526EA0C0603D133
:101BD0004FF0000C41E06CE0DFF8F4C0604502D14A
:101BE0004FF0010C39E0DFF8ECC0604502D14FF056
:101BF000020C32E0DFF8E0C0604502D14FF0030C88
:101C00002BE0DFF8D8C0604502D14FF0040C24E08F
:101C1000DFF8CCC0604502D14FF0050C1DE0DFF8C5
:101C2000C4C0604502D14FF0060C16E0DFF8B8C022
:101C3000604502D14FF0070C0FE0DFF8B0C06045FF
:101C400002D14FF0080C08E0DFF8A4C0604502D1D3
:101C50004FF0090C01E04FF00A0C0CFA07FC4CEABB
:101C6000060CCEF808C44F68DBF80060FF0226EAD5
:101C7000020600D516435F46CBF80060D1F804C0D9
:101C8000DBF804605FEA8C2C26EA020600D51643D6
:101C90007E606E684F6826EA0206BF0300D51643D1
:101CA0006E602E684F6826EA0206FF0300D51643D1
:101CB0002E605B1C0A6832FA03F67FF411AFBDE8B0
:101CC000F88F000080000058F444025800000258C9
:101CD0000004025800080258000C02580010025874
:101CE0000014025800180258001C02580020025824
:101CF00000240258426921EA02030A4043EA0241F1
:101D0000816170470AB1816170470904FBE70000F7
:101D100001480068000C70470010005C01488068B2
:101D200070470000000000240248816802781144D6
:101D30008160704700000024032010B500F0C8F84F
:101D400001F09AF90F4A104914681368C4F303228A
:101D500003F00F038A5CC95C02F01F0201F01F014F
:101D6000D0400A4A20FA01F11160094908600F20A9
:101D700000F010F808B1012010BD00F07BF8002041
:101D800010BD000018440258EE5100081000002455
:101D90000C00002470B50D4D04462878A0B14FF416
:101DA0007A71B1FBF0F00A490968B1FBF0F001F07B
:101DB000C0FC48B9102C07D200222146501E00F06A
:101DC00067F800206C6070BD012070BD0000002429
:101DD0000C000024154BF0B5083B427813491A60FB
:101DE0000B680A1F23F001030B6043681360057B37
:101DF000C67A827A437B2D07847B45EA0665C77BDA
:101E000090F809C0067A90F800E045EAC24040EA3E
:101E1000834040EA444040EA074040EA0C2040EA60
:101E2000460040EA0E000860F0BD0000A0ED00E0B2
:101E3000BFF35F8F044800210368034A23F4803313
:101E4000036070321160704724ED00E0074A40F0F3
:101E50000100064970321060086840F48030086064
:101E6000BFF34F8FBFF36F8F7047000024ED00E08A
:101E700070470000054808B5016841F002010160A3
:101E8000006800F00200009008BD0000F444025811
:101E90000E4BF0B41B680D46C3F30223C3F10706D3
:101EA000042E00D90426191D072901D2002300E0C1
:101EB000DB1E012404FA06F19C40491E2940641EE1
:101EC000994014402143F0BC02F0D0BF0CED00E07B
:101ED000064900F0070210B54FF6FF040868044BEE
:101EE000204040EA02201843086010BD0CED00E0DD
:101EF0000000FA05134970B50A68D243520705D5A8
:101F0000096801F00701814213D118E00A6822F044
:101F1000070202430A60FFF701FF0A4D4FF47A7689
:101F20000446083D07E000BFFFF7F8FE001BB04283
:101F300001D9012070BD2868C0438004F4D400207A
:101F400070BD00000C48025810B501F04FF805496B
:101F50000968054AC1F30211515C01F01F01C84034
:101F600010BD000020440258EE510008494930B528
:101F7000484C0B1D0A68143409681D68246802F077
:101F80000303C5F30012C1F30531C4F3CC040029E7
:101F900014FB02F200EE102AF8EE400A75D03F4A18
:101FA0009FED3D1AB7EE000A6BB1DFED3D1A012B34
:101FB00001D0022B64D002EE101A1168F8EE422A0A
:101FC00081EEA22A21E0334C283C23689B0612D5DF
:101FD000344B246801EE901A1168C4F3C104F8EE82
:101FE000612AE34001EE903AC1F30801F8EE611A6C
:101FF00081EEA22A0BE001EE901ADFED2B2A00BF42
:10200000F8EE611A116882EEA12AC1F3080101EE0F
:10201000901A1168F8EE611A40EE811A71EE800A8A
:1020200062EE200AC1F3462101EE101AB8EE411A01
:1020300031EE001AC0EE811ABCEEE11A80ED001AF2
:102040001168C1F3064101EE101AB8EE411A31EEE3
:10205000001AC0EE811ABCEEE11A80ED011A116877
:10206000C1F3066101EE101AB8EE411A31EE000A12
:1020700080EE801ABCEEC10A80ED020A30BD04E099
:1020800001EE901ADFED092ABAE7002101604160F4
:102090008160F3E7284402580000003938440258B0
:1020A0000024744A0090D0030024744C20BCBE4B22
:1020B000494930B5484C0B1D0A681C3409681D6835
:1020C000246802F00303C5F30022C1F30551C4F3F1
:1020D000CC04002914FB02F200EE102AF8EE400AAC
:1020E00075D03F4A9FED3D1AB7EE000A6BB1DFEDA8
:1020F0003D1A012B01D0022B64D002EE101A116898
:10210000F8EE422A81EEA22A21E0334C283C2368D3
:102110009B0612D5344B246801EE901A1168C4F363
:10212000C104F8EE612AE34001EE903AC1F30801E0
:10213000F8EE611A81EEA22A0BE001EE901ADFEDB3
:102140002B2A00BFF8EE611A116882EEA12AC1F3B2
:10215000080101EE901A1168F8EE611A40EE811A3A
:1021600071EE800A62EE200AC1F3462101EE101AD8
:10217000B8EE411A31EE001AC0EE811ABCEEE11A37
:1021800080ED001A1168C1F3064101EE101AB8EE95
:10219000411A31EE001AC0EE811ABCEEE11A80ED50
:1021A000011A1168C1F3066101EE101AB8EE411A66
:1021B00031EE000A80EE801ABCEEC10A80ED020A00
:1021C00030BD04E001EE901ADFED092ABAE70021E4
:1021D000016041608160F3E7284402580000003943
:1021E000404402580024744A0090D0030024744CE8
:1021F00020BCBE4B2DE9FE4F0546DFF8E48350F8C6
:10220000081B0024F64FC943019005F1280026461B
:1022100008F12408009008011DD4A86E50B1B0F553
:10222000801F0CD0B0F5001F0ED0B0F5401F1ED09F
:1022300001240FE0386840F40030386017E001985E
:10224000022102F0C7F803E00098022102F052F9DF
:1022500004000CD026462888C043C00523D4A86DAE
:1022600005281ED2DFE800F00C11161B1B00AA6E19
:10227000D8F8001021F440111143C8F80010EAE723
:10228000386840F40030386009E00198002102F01D
:10229000A1F803E00098002102F02CF9044674B183
:1022A00000E0012426462888C043800528D4E86D34
:1022B00080281ED00CDC90B140280ED114E0AA6D0D
:1022C000D8F8001021F007011143C8F80010EAE720
:1022D000C02813D0B0F5807F10D001240FE03868FB
:1022E00040F40030386009E00198002102F072F8F3
:1022F00003E00098002102F0FDF804469CB1264658
:102300002888DFF8DC92C04309F12C0940052CD461
:10231000D5F8A800B0F5800F20D00DDCA0B1B0F545
:10232000001F0FD115E0EA6DD8F8001021F4E0711C
:102330001143C8F80010E3E7B0F5C00F13D0B0F5B3
:10234000000F10D001240FE0386840F400303860EE
:1023500009E00198002102F03DF803E00098002117
:1023600002F0C8F804467CB126462888C043000520
:102370002DD4D5F8AC00B0F1007F21D00EDCA8B18F
:10238000B0F1807F10D116E0D5F8A820D9F8001060
:1023900021F460011143C9F80010E6E7B0F1407F75
:1023A00013D0B0F1806F10D001240FE0386840F4F2
:1023B0000030386009E00198002102F00BF803E0DA
:1023C0000098002102F096F8044674B12646286869
:1023D000C04380011FD4E86CD8B110280FD020284A
:1023E00012D0302815D0012414E0D5F8AC20D9F84B
:1023F000001021F0E0611143C9F80010E7E73868E8
:1024000040F40030386004E00198022101F0E2FF5E
:10241000044674B126462888C043C0042BD4286ED5
:10242000B0F5005F20D00DDCA0B1B0F5805F0FD11A
:1024300015E06B48EA6C2030016821F0300111434F
:102440000160E8E7B0F5405F13D0B0F5804F10D0E1
:1024500001240FE0386840F40030386009E001984A
:10246000002101F0B7FF03E00098002102F042F8DC
:1024700004468CB126462888C043800429D4686E5F
:10248000B0F5403F23D010DC08B3B0F5803F14D046
:10249000B0F5003F0FD115E02A6ED8F8001021F4F6
:1024A000E0411143C8F80010E5E7B0F5802F0ED0E9
:1024B000B0F5A02F0BD001240AE00198012101F012
:1024C00089FF03E00098012102F014F8044694B15A
:1024D00026462888C04340042AD4D5F8B000B0F17D
:1024E000405F23D010DC08B3B0F1805F14D0B0F1AE
:1024F000005F0FD115E06A6ED8F8001021F4E021DA
:102500001143C8F80010E4E7B0F1804F0ED0B0F1ED
:10251000A04F0BD001240AE00198012101F05AFFDD
:1025200003E00098012101F0E5FF044674B126465E
:102530002888C04300041FD4286FD8B1B0F1805F51
:102540000ED0B0F1005F10D0012414E0D5F8B02017
:10255000D9F8001021F0E0411143C9F80010E7E775
:10256000386840F40030386004E00198012101F03F
:1025700031FF044674B126462868C043C0011ED40A
:10258000A86CD0B101280ED0022811D0032814D095
:10259000012413E02A6FD8F8001021F040511143B4
:1025A000C8F80010E8E7386840F40030386004E00C
:1025B0000198022101F00EFF0446ACB126462868BE
:1025C000DFF81CB0C043ABF11C0B400252D40548ED
:1025D000016841F480710160FFF7A0FB824611E0C1
:1025E0002C44025800480258FA48AA6C016821F0AD
:1025F000030111430160E2E7FFF790FBA0EB0A0043
:10260000642835D8F4480068C005F5D58CBBDFF8E0
:10261000C4A3B5F8B4100AF1240ADAF8000001F4F2
:10262000407100F44070884211D0DAF80010DAF8F6
:10263000002021F4407142F48032CAF80020DAF818
:10264000002022F48032CAF80020CAF80010D5F821
:10265000B400B0F5807F1AD1FFF760FB029012E062
:10266000FFF75CFB0299411A41F2883081420AD996
:10267000032426462878DFF85CA3C0430AF1080A41
:10268000C00721D03CE0DAF800008007E8D5D5F893
:10269000B410C1F30120032858460DD0016821F47D
:1026A0007C510160B5F8B420DAF80010C2F30B02D7
:1026B0001143CAF80010DDE7C84A036802EA1112A4
:1026C00023F47C511143ECE7E86F182816D005DCA1
:1026D000A0B1082808D0102804D10AE020280DD085
:1026E00028280BD001240AE00198012101F072FE94
:1026F00003E00098012101F0FDFE044664B1264686
:102700002878C04380071ED4A86F062819D2DFE8B6
:1027100000F0160C11161616EA6FDAF8001021F008
:1027200038011143CAF80010EAE70198012101F0CD
:1027300051FE03E00098012101F0DCFE04467CB16B
:1027400000E0012426462878C04340071FD4D5F86E
:102750009400062819D2DFE800F0160C11161616A0
:10276000AA6FDAF8001021F007011143CAF800102F
:10277000E9E70198012101F02DFE03E00098012115
:1027800001F0B8FE0446A4B100E0012426462878F2
:10279000C04380062BD4D5F89000B0F1405F24D020
:1027A00011DC10B3B0F1805F15D0B0F1005F10D133
:1027B00016E0D5F89420D9F8001021F00701114354
:1027C000C9F80010E3E7B0F1804F0ED0B0F1A04F90
:1027D0000BD001240AE00198002101F0FBFD03E089
:1027E0000098022101F086FE044694B1264628781E
:1027F000C04340062BD4D5F89C00B0F5406F24D0E0
:1028000011DC10B3B0F5806F15D0B0F5006F10D1AA
:1028100016E0D5F89020DAF8001021F0E0411143DD
:10282000CAF80010E3E7B0F5805F0ED0B0F5A05F06
:102830000BD001240AE00198002101F0CBFD03E058
:102840000098022101F056FE044694B126462878ED
:10285000C04300062BD4D5F8A000B0F5C04F24D05B
:1028600011DC10B3B0F5005F15D0B0F5804F10D17A
:1028700016E0D5F89C20D9F8001021F4E05111435E
:10288000C9F80010E3E7B0F5004F0ED0B0F5204FC7
:102890000BD001240AE00198002101F09BFD03E028
:1028A0000098022101F026FE044654B126462878FD
:1028B000C04300071ED4D5F88400B0F5805F0AD06D
:1028C0000FE0D5F8A020D9F8001021F460411143A1
:1028D000C9F80010EBE70098022101F00BFE00B1EF
:1028E0000126D5F88420DAF8001021F44051114374
:1028F000CAF800102878C043C00613D4D5F8980051
:10290000B0F5807F05D10098022101F0F3FD00B100
:102910000126D5F89820D9F8001021F44071114310
:10292000C9F800102868C043000316D4D5F8A400E5
:1029300038B1B0F5803F09D0B0F5003F0BD001248D
:102940000AE00198002101F045FD03E00098022112
:1029500001F0D0FD04468CB126462868C0434003F0
:1029600022D4D5F88800B0F5801F11D0B0F5001F33
:1029700013D0B0F5401F15D0012414E0D5F8A420E1
:10298000D9F8001021F440311143C9F80010E4E7F0
:10299000386840F40030386004E00098012101F00C
:1029A000A9FD04465CB126462868C043C00323D471
:1029B000286DA8B1B0F5803F17D001241BE0D5F8F1
:1029C0008820DAF8001021F440111143CAF80010F1
:1029D000EAE700004C44025800480258CFFFFF00CD
:1029E000386840F40030386004E00198022101F0BA
:1029F000F1FC0446E4B126462868C043800005D4B3
:102A00000098022101F076FD00B101262868C0433C
:102A100080031BD4D5F88000B0B1B0F5807F0FD013
:102A2000B0F5007F10D0B0F5407F0DD001240CE050
:102A30005A482A6D016821F4803111430160DBE7B7
:102A4000386840F400303860ECB326462868C0434C
:102A5000C00207D46A6FD8F8001021F0004111437A
:102A6000C8F800102868C043C00008D4D5F8B820C2
:102A7000DBF8001021F480411143CBF800102868E6
:102A8000C043800207D4EA6ED8F8001021F08071AC
:102A90001143C8F800102868C04340000CD4DBF88C
:102AA000001021F40041CBF80010DBF80010D5F83D
:102AB000BC201143CBF800102868C04308D4374825
:102AC0006A6D016800E018E021F040511143016097
:102AD0002868C043000208D4D5F88C20DAF800102A
:102AE00021F440011143CAF8001028790024C043A2
:102AF00000F0010020430AD00FE0D5F88020DAF87A
:102B0000001021F440711143CAF800109EE70198AB
:102B1000002101F05FFC00B106462879C04300F0B7
:102B20000200204305D10198012101F053FC00B1BE
:102B300006462879C04300F00400204305D10198DF
:102B4000022101F047FC00B106462879C04300F09D
:102B50000800204305D10098002101F0CBFC00B112
:102B600006462879C04300F01000204305D10098A4
:102B7000012101F0BFFC00B106462879C04300F0F6
:102B80002000044304D10098022101F0B3FC00B9F5
:102B900016B10120BDE8FE8F0020FBE74C4402582F
:102BA0002DE9F05F04000F467ED0DFF83882D8F8B8
:102BB000000000F00F00B8420CD2D8F8001021F04D
:102BC0000F013943C8F80010D8F8000000F00F00DA
:102BD000B84269D12078844D40070AD52069296818
:102BE00001F07001884204D9296821F07001014385
:102BF000296020787C4E361D00070AD5606931684F
:102C000001F07001884204D9316821F0700101435C
:102C100031602078C0060AD5A069316801F4E0610E
:102C2000884204D9316821F4E061014331602078A1
:102C3000DFF8B4B180060BF1080B0CD5E1695846FA
:102C4000DBF8002002F07002914204D9026822F001
:102C500070020A430260207880070AD5E06829687C
:102C600001F00F01884204D9296821F00F010143C6
:102C700029602078C0073ED05B49A26828681839CF
:102C800020F47060104328606068022818D0032880
:102C900019D00968012819D0490700294ADADFF854
:102CA00048A1AAF1080A00E044E0DAF8002022F086
:102CB00007020243CAF80020FFF730F8814612E00D
:102CC00009688903E9E709688901E6E7C905E4E7D6
:102CD000FFF724F8A0EB090141F28830814202D9C4
:102CE0000320BDE8F09F6168DAF8000000F03800CA
:102CF000B0EBC10FECD1207880070AD5E0682968D5
:102D000001F00F01884204D2296821F00F0101432C
:102D10002960D8F80010404601F00F01B9420BD9E4
:102D2000016821F00F0139430160006800F00F00D5
:102D3000B84201D00120D4E7207840070AD52069A5
:102D4000296801F07001884204D2296821F07001DD
:102D500001432960207800070AD56069316801F0D5
:102D60007001884204D2316821F070010143316062
:102D70002078C0060AD5A069316801F4E061884274
:102D800004D2316821F4E06101433160207880068B
:102D90000CD5E1695846DBF8002002F07002914240
:102DA00004D2026822F070020A43026000F064F963
:102DB0000E492A682B68C2F3032203F00F038A5CD2
:102DC000C95C02F01F0201F01F01D040084A20FA3E
:102DD00001F111600749086007480068BDE8F05F2D
:102DE000FEF7D8BF0020005218440258EE510008E8
:102DF000100000240C000024040000242DE9F047FA
:102E0000704C206800F00F00072809D2206820F0DD
:102E10000F00C01D2060206800F00F0007287CD143
:102E2000FEF77CFFDFF8A0810546D8F8000040F0EF
:102E30000100C8F8000004E0FEF770FF401B022804
:102E400075D8D8F800004007F6D55F4800275E4ED9
:102E5000001D103603685D4943F08043036037600E
:102E60005B4801605B4801605B480068FEF792FFC9
:102E7000002852D1FEF752FF054641F2883904E09E
:102E8000FEF74CFF411B494551D8306810F0380F10
:102E9000F6D1FEF743FF51490546D8F80000084037
:102EA000C8F8000005E000BFFEF738FF401B6428AB
:102EB0003DD8D8F800008003F6D4FEF72FFF054672
:102EC000D8F8000020F08070C8F8000005E000BFCE
:102ED000FEF724FF401B022829D8D8F80000800103
:102EE000F6D4FEF71BFF0546D8F8000020F08060FE
:102EF000C8F8000005E000BFFEF710FF401B0228E5
:102F000015D8D8F800000001F6D4FEF707FF0546F3
:102F1000D8F8000020F0805001E04EE007E0C8F84B
:102F2000000007E0FEF7FAFE401B022802D903204A
:102F3000BDE8F087D8F800008000F3D4224D384671
:102F400027491835274B2E1D321D2F601E4F264D49
:102F5000283730603E1D1060321D3B60131D356008
:102F60001D1D11602A1D161D1860331D296010607B
:102F700031601860D8F800304FF0FF351249124A1E
:102F800023F48023104ED0316032C8F80030683608
:102F900010603560086840F480300860206800F0F8
:102FA0000F0007280BD9206820F00F00C01D2060FB
:102FB000206800F00F00072801D00120B8E70020AA
:102FC000B6E7000000200052004402580090D003F1
:102FD0000C000024100000240400002445EDF6FF3E
:102FE00080020101000202020000FF0130B500F082
:102FF00043F80B4A0B490C4B15681468C5F30322C0
:1030000004F00F048A5C095D02F01F0201F01F0149
:10301000D040064A20FA01F119601060084630BD20
:1030200018440258EE510008100000240C0000243F
:1030300000B5FFF7DBFF05490968054AC1F3021136
:10304000515C01F01F01C84000BD00001C44025843
:10305000EE51000800B5FFF7C9FF05490968054AA8
:10306000C1F30221515C01F01F01C84000BD000006
:103070001C440258EE510008454970B5454809689E
:10308000434B103B11F0380208D00111082A03D03D
:10309000102A0BD0182A0BD0084670BD1968890673
:1030A000FBD51968C1F3C101C84070BD3A4870BD75
:1030B0003749374D18310C1D24350A6809682668D0
:1030C0002D6802F0030406F00102C1F30511C5F3F7
:1030D000CC0515FB02F200EE102AB8EE400AE9B367
:1030E0002F4ADFED2E0AB7EE001A6CB1DFED2D1A74
:1030F000012C01D0022C43D002EE101A1068F8EE19
:10310000422A81EEA22A1EE01C68A40611D51B6883
:1031100001EE901A1168C3F3C103F8EE612AD8409A
:1031200001EE900AC1F30800F8EE611A81EEA22ABE
:103130000BE001EE901ADFED1C2A00BFF8EE611AD9
:10314000106882EEA12AC0F3080001EE900AF8EEA2
:10315000611A40EE201A31EE810A00E015E022EEFD
:10316000000A1068C0F34620401C00EE900AF8EEFA
:10317000600A80EE201ABCEEC10A10EE100A70BD83
:1031800001EE901ADFED092AD8E7002070BD00009B
:10319000104402580090D00340787D0100000039AF
:1031A000304402580024744A0024744C20BCBE4BA6
:1031B0002DE9F05F04007DD0FF4F2078FE4D1837D9
:1031C000DFF8F493103DC00748D0D9F80000396803
:1031D00000F03800102815D0182803D101F00300A2
:1031E00002280FD06068B0F5803F12D010B1B0F562
:1031F000A02F18D0286820F480302860286820F498
:10320000802009E02868800328D560680028D2D093
:1032100024E0286840F480302860606888B1FEF7B8
:103220007DFD064609E0286840F480202860F0E72C
:10323000FEF774FD801B64286FD828688003F7D5DB
:103240000CE0FEF76BFD064605E000BFFEF766FDED
:10325000801B6428F0D828688003F7D4207841F2D6
:103260000308D54E0C3E800769D5D9F800003968AF
:1032700010F038000ED0182801D188070AD0E06875
:1032800090B3296821F0190101432960FEF746FD3A
:10329000824631E02868400702D5E06800288AD0DD
:1032A000E168286820F0190008432860FEF736FD21
:1032B000824607E0DFE000BFFEF730FDA0EB0A002A
:1032C0000228B9D828684007F6D500BFFEF720FDD0
:1032D00040451BD82069402812D0316821F47C3148
:1032E00041EA003030602AE018E000BFFEF716FD2A
:1032F000A0EB0A0002289FD828684007F6D5E5E72A
:10330000306820F47C3040F40030EBE7207C3168FA
:1033100021F0FE4141EA0060E4E70DE1286820F079
:1033200001002860FEF7FAFC824605E0FEF7F6FC95
:10333000A0EB0A0002288DD828684007F6D4207830
:10334000C0065DD5D9F80000DFF86CB2396800F02E
:103350003800ABF1040B082810D0182803D101F075
:10336000030001280AD0E0690028286838D040F01E
:1033700080002860FEF7D2FC824623E02868C00562
:1033800023D5E069802876D11FE0206A202821D04B
:10339000316821F0F84141EA8060306030E000BFE0
:1033A00094F82010DBF8002022F07C5242EA016100
:1033B000CBF8001024E000BFFEF7B0FCA0EB0A0041
:1033C000022898D82868C005F6D5FEF7A1FC40452C
:1033D000E6D8DAE7306820F0F84040F08040DCE7DB
:1033E00020F080002860FEF799FC064605E000BF4B
:1033F000FEF794FC801B02289DD82868C005F7D4EE
:103400002078000729D56C4861696430002980461E
:10341000016811D041F001010160FEF77FFC064612
:1034200005E000BFFEF77AFC801B0228C9D8D8F857
:1034300000008007F6D510E021F001010160FEF7E1
:103440006DFC064605E000BFFEF768FC801B022805
:1034500072D8D8F800008007F6D42078800623D5EB
:10346000A0690028286810D040F480502860FEF73A
:1034700055FC064605E036E1FEF750FC801B0228AD
:103480005AD828688004F7D50EE020F480502860D0
:10349000FEF744FC064604E0FEF740FC801B0228D1
:1034A0004AD828688004F7D4207840074FD5DFF841
:1034B0000C81D8F8001041F48071C8F80010FEF7B4
:1034C0002DFC064605E000BFFEF728FC801B6428A3
:1034D00032D8D8F80000C005F6D5374EA06860365F
:1034E00001280AD008B1052813D0306820F0010067
:1034F0003060306820F0040002E0306840F00100E5
:103500003060A06841F2883A90B1FEF707FC80462F
:103510000AE0306840F004003060EEE7FEF7FEFBA2
:10352000A0EB0801514507D830688007F6D50EE0BA
:10353000FEF7F4FB804607E084E000BFFEF7EEFBF9
:10354000A0EB080151457DD830688007F6D4606A49
:10355000B0B3DFF86480D9F8001008F120084FF606
:10356000F87B08F10409C1F3C2010329A8F1040A98
:1035700069D00228286820F08070286003D0FEF708
:10358000CDFB044684E0FEF7C9FB064605E000BF1C
:10359000FEF7C4FB801B022877D828688001F7D487
:1035A000E26A40F2F331386854F8283F884340EA31
:1035B00002101843386004E01044025800480258D2
:1035C000B5E0217B434622894FF4FE0C208A4FF060
:1035D000FE474902267D521E401EA1F50071C2F32E
:1035E00008088AB2761E0CEA004042EA080202434A
:1035F000504607EA06610A431A60DAF8002022F012
:103600000102CAF80020D9F80020266A22EA0B023B
:1036100042EAC602C9F80020DAF80010A26921F0D7
:103620000C011143CAF800100168E26921F002019F
:1036300011430160016841F480310160016841F487
:10364000003101E021E027E00160016841F48021C0
:103650000160016841F001010160286840F080705C
:103660002860FEF75BFB044605E000BFFEF756FB53
:10367000001B022809D828688001F7D557E000BF51
:10368000FEF74CFB001B022802D90320BDE8F09F87
:1036900028688001F4D44AE039680128D8F800008D
:1036A00021D0A26A01F0030393421CD1E26AC1F364
:1036B00005118A4217D1216BC0F30802491E8A42C4
:1036C00011D1616BC0F34622491E91420BD1A16B0F
:1036D000C0F30642491E914205D1E16BC0F306607A
:1036E000491E814201D00120D0E7A16C4E46D9F895
:1036F0000000C0F3CC00814219D0DAF80000554632
:1037000020F00100CAF80000FEF708FB4FEA0007AE
:10371000FEF704FBB842FBD0A26C306820EA0B0035
:1037200040EAC2003060286840F0010028600020B4
:10373000ACE7401EB0F1807F10B501D3012010BD71
:103740004FF0E02460610F21601701F08FFB002033
:10375000A0610721216110BD30B590F884100129C6
:1037600018D0012280F884202421C0F8881000227B
:10377000202401680B680D6823F0005325F0010533
:103780000D60426601680B60C0F8884080F88420B4
:10379000104630BD022030BD70B5044690F884005C
:1037A00001281DD0012284F884202420C4F8880038
:1037B00020680568026822F00102026020688268C1
:1037C00022F060620A438260204600F0F7FF226820
:1037D000202100201560C4F8881084F8840070BD92
:1037E000022070BD70B5044690F8840001281DD0F9
:1037F000012284F884202420C4F888002068056809
:10380000026822F0010202602068826822F06042B1
:103810000A438260204600F0D1FF22682021002068
:103820001560C4F8881084F8840070BD022070BD53
:1038300070B504001DD02420C4F88800002520683D
:10384000016821F001010160206805602068456081
:1038500020688560204600F043F8C4F89050C4F812
:103860008850C4F88C50E5662567002084F88450A1
:1038700070BD012070BD10B5040003D0D4F88800DD
:1038800010B107E0012010BD002084F8840020461C
:1038900000F03CF82420C4F888002068016821F07A
:1038A00001010160A06A10B1204600F0A9FF204686
:1038B00001F08AF80128E6D02068416821F490419F
:1038C00041602068816821F02A01816020680168D8
:1038D00041F0010101602046BDE8104000F0F4BF56
:1038E00000680749884209D10648016821F480210F
:1038F000016005484FF44061FEF72EB870470000A4
:1039000000480040E84402580008025810B5B6B01C
:103910000446142130A8FCF7E9FFC0216846FCF7F3
:10392000E5FF1949206888422BD100201E90022112
:103930000446CDE900106846FEF75CFC08B1FDF7CF
:1039400010FC1248016841F480210160006800F415
:10395000802035900D480838016841F0040101606D
:10396000006830AB022100F0040035904FF4406055
:10397000072283E81300064830A9CDE93342FEF759
:10398000A3F836B010BD000000480040E8440258DB
:10399000000802582DE9F84F0446D0F88C009B46E9
:1039A00016460D46202802D00220BDE8F88FC5B18A
:1039B000BEB10027C4F890702220C4F88C00E766DE
:1039C0002034FEF7ABF9824654F8180CA6874FF462
:1039D0008053E687FF21203C984207D1226912B12B
:1039E00019E00120E1E740F2FF1114E04FF07F02FF
:1039F00078B1B0F1805F11D0A4F860709842B4F84B
:103A000060704FF0200801D1206970B12E4600256A
:103A10000CE0266936B9A4F86010EFE7216909B116
:103A20003F21F8E7A4F86020E8E7002607F0FF0947
:103A3000B4F85E00F0B10022534620212046CDF8B4
:103A400000B001F097F918B1C4F88C800320ACE7FE
:103A50002068406A56B100EA090006F8010B00BF71
:103A6000B4F85E00401EA4F85E00E1E7384025F897
:103A7000020BF5E7C4F88C80002096E72DE9F843A7
:103A80000446D0F88800984616460D46202802D0F5
:103A90000220BDE8F883A5B19EB10021C4F89010C2
:103AA0002120C4F888001834FEF738F9814654F80C
:103AB000100CA687E6872027183CB0F5805F02D05F
:103AC00003E00120E5E7206910B12E46002510E053
:103AD00000260EE08021204601F04CF9C0B9DEB18D
:103AE00016F8010B21688862B4F85600401EA4F84D
:103AF0005600B4F856004B464FF00002CDF8008057
:103B00000028E7D14FF04001204601F033F948B1D9
:103B1000C4F888700320BCE735F8020B2168C0F3B5
:103B20000800E0E7C4F888700020B2E701A0FDF7C4
:103B3000EDFBFEE7486172644661756C740000003D
:103B40007FB500240094019402940394FEF770F969
:103B500001258DF80C501F208DF8080087218DF865
:103B600009108DF80D5068468DF800508DF80A4008
:103B70008DF80E408DF8014001948DF80B408DF8C2
:103B80000F40FEF727F914218DF808108DF8094031
:103B9000E8068DF80C4003268DF80A508DF80D408C
:103BA0008DF80150019068468DF80B608DF80E502D
:103BB000FEF710F98DF80C5002200A490E228DF8FC
:103BC00008208DF80D508DF80100684601918DF8A0
:103BD0000B608DF80E40FEF7FDF80420FEF736F975
:103BE0007FBD0000000004302DE9F04186B01421B3
:103BF0006846FCF77BFE2348016841F01001016034
:103C0000016801F010010591016841F08001016037
:103C1000016801F080010591016841F00101016036
:103C2000016801F001010591016841F004010160A2
:103C300000680022144F042100F00400059038466B
:103C4000FEF760F8DFF844804FF40066002231464A
:103C50004046FEF757F800246946012504200090ED
:103C6000CDE9015438460394FDF72EFF00966946CE
:103C7000CDE9015440460394FDF726FF06B0BDE8A8
:103C8000F0810000E0440258001002580000025881
:103C90001848002110B5164C0C224FF4E133046093
:103CA000C0E90131C160C0E904128161C1610162F2
:103CB00041628162FFF7DFFD08B1FDF752FA0D485E
:103CC0000021FFF78FFD08B1FDF74BFA09480021ED
:103CD000FFF762FD08B1FDF744FA0648FFF73CFD27
:103CE000002803D0BDE81040FDF73BBA10BD00002E
:103CF000004800401400002401A0FDF707FBFEE788
:103D00004D656D4D616E616765000000FEE75C21E9
:103D1000FDF726BB70B504000D4616D06021FCF7F8
:103D2000E5FD01220948110484E80700012D4FF048
:103D3000000002D0022D00D00125C4E903506061CB
:103D4000A0612046FFF7E3FFE06570BD4D41544F91
:103D5000002804D0012903D0022903D00020704795
:103D6000806A7047806B7047104910B5040008D016
:103D70006022FCF781FD0E492068884203D00DA027
:103D80000EE0002010BD6068B0F5803F01D015A0A6
:103D900006E02046FFF7BBFFE16D884203D01DA07F
:103DA00001F04CF8EDE7012010BD000000001E08F6
:103DB0004D41544F5B424F4F545D206D65746164BB
:103DC000617461206C6F6164206661696C65643A3E
:103DD000206D61676963206D69736D617463680D3F
:103DE0000A0000005B424F4F545D206D65746164B2
:103DF000617461206C6F6164206661696C65643A0E
:103E00002076657273696F6E206D69736D6174637E
:103E1000680D0A005B424F4F545D206D657461640C
:103E2000617461206C6F6164206661696C65643ADD
:103E300020637263206D69736D617463680D0A009D
:103E400070B50028B6B013D000F10C04C36D70CC6F
:103E5000CDE904631346074ACDE902458068CDE900
:103E60000010C02106A8FCF70DFB06A800F0E6FF35
:103E700036B070BD7453000870B5040016D0A06849
:103E80004FF48031114A401C2260C4E901102046E1
:103E9000FFF73DFF0021E0650DA22046FFF7D0FFB0
:103EA000FDF77CFA050003D00BA208E0012070BDED
:103EB0000D4860222146FDF775FB0CA20546014620
:103EC0002046FFF7BDFF284670BD00004D41544F0E
:103ED000707265706172650065726173655F6661BD
:103EE000696C65640000000000001E087772697448
:103EF000655F646F6E650000020009D010690128DB
:103F000007D0022805D0D068012802D0022800D0AE
:103F10000846704730B50028DDE9035408D0012970
:103F200007D0022904D1846310F12C0080E82C0012
:103F300030BD84621C30F9E7F8B504001D46134615
:103F40000F464FF000060DD067B15BB1206870B12D
:103F50006DB1E2692069511981420DD906210346EC
:103F6000009521E00023009609211A461CE0002359
:103F7000009604211A4617E0A068194610442A4604
:103F8000FDF710FB50B10720C7E905603846FFF781
:103F900073FF00960721E2692B4605E0E0694219AC
:103FA000E261009600212369032000F0E9F9022074
:103FB000F8BD00002DE9FC4104000D464FF000065D
:103FC00011D085B1206818B12169E06988420FD00D
:103FD0000620C5E905602846FFF74EFF009606213A
:103FE0002369E26938E00023009609211A4633E08C
:103FF00023A000F023FF2169A068FDF7CDF96369D4
:104000000746BB4213D0082000231A46C5E90560C5
:10401000A069CDE9000661682846FFF77BFF2846C6
:10402000FFF72AFF0096082163693A4614E0012150
:10403000A069CDE90001226928466168FFF76AFF9F
:104040006068C5E904062846AE61FFF715FF48B170
:104050000023009607211A46042000F091F902205F
:10406000BDE8FC816069002100900420236962683A
:1040700000F086F909A000F0E1FE0120F0E7000061
:104080005B424F4F545D2076657269667920696D99
:10409000616765206372630D0A0000005B424F4F49
:1040A000545D206F74612075706461746520646F65
:1040B0006E652C2072657365742072657175697206
:1040C00065640D0A00000000F0B50400174687B0D3
:1040D0000E464FF0000504D01EB117B1206838B964
:1040E00004E00023009509211A465DE0102B04D05E
:1040F0000023009504211A4656E01022394602A8F2
:10410000FCF775FB0298012805D0022803D0002394
:104110000246009505E0F368834204D11BB10246D4
:104120000095052140E0FDF70FFAE0600346039893
:1041300008B1984203D906210246009534E002985E
:1041400060600298FDF7F2F9A0600398206104987E
:1041500060610598C4E9060516A000F06FFE60686E
:10416000FDF78EF950B10720C6E905503046FFF73C
:1041700083FE002300956268072115E00220C6E94E
:104180000505A0690023CDE9000561681A4630469F
:10419000FFF7C0FE3046FFF76FFE01202060A069E8
:1041A0000021009023696268022000F0E9F807B05E
:1041B0000220F0BD5B424F4F545D20657261736514
:1041C0002074617267657420736C6F740D0A00004F
:1041D0002DE9F047CEB089462021044645A8FCF7DA
:1041E00085FB002541954FF4807A429501A8514600
:1041F00043954495FCF77AFB2E46CCB349A000F0DA
:104200001DFE00BFB9F1000F02D04FF0FF3701E0F3
:1042100040F2DC5710213A4641A80DF1040800F0A5
:10422000F3FD00BB4649419888421CD1BDF80A11F4
:10423000514518D861B13A46404600F0E5FD90B9C5
:10424000BDF80A114046FDF78BF8449988420AD11F
:10425000BDF808017EB1811E05295ED2DFE801F0BC
:10426000353D474C20001EB900204EB0BDE8F08718
:10427000FFE70220F9E7012807D00023009580B26C
:104280001A46042100F07CF8F3E701262DA000F087
:10429000D5FDA06B002100900120A36AE26811E027
:1042A0005CB1278AA189A06BA36A67F31F400090C5
:1042B00061F31F436269002103E000230095092197
:1042C0001A46062000F05CF89CE7BDF80A3101AA06
:1042D00045A82146FFF7F8FE06E0BDF80A3101AA1D
:1042E00045A82146FFF728FE01288BD1BDE745A848
:1042F0002146FFF75FFEB8E70420C4E905502046D9
:10430000FFF7BAFD0023009505201A46194600F074
:1043100037F813A000F092FDABE700230246092115
:104320000095CFE75B424F4F545D20776169742061
:104330006F74612068616E647368616B650D0A005B
:104340004F5441315B424F4F545D206F7461207375
:10435000657373696F6E206F70656E65640D0A001A
:104360005B424F4F545D206F7461207365737369B6
:104370006F6E2061626F727465640D0A0000000048
:10438000F0B589B0114E00250DF1100C0E9C1027D0
:10439000019540F400400295009603958CE81E00BC
:1043A000ADF8040004A83946ADF80670FCF7D8FF54
:1043B00010210390684600F033FD10B1012009B0D0
:1043C000F0BD102104A800F02BFDF8E74F54413157
:1043D000704700002DE9F047454D044689464FF0EF
:1043E000000A2868C04380070AD0414E283E306842
:1043F00020F080603060FDF791FC0746B04608E091
:104400000120BDE8F08700BFFDF788FCC01B022833
:1044100067D8D8F800000001F6D4206829684FF466
:10442000FE0721F47C313E0241EA00302860207A08
:10443000A389B4F804C040022D4D2D495B1E227C97
:10444000ACF1010C1035091DA0F5007080B2521EB0
:10445000CCF3080C07EA034340EA0C00184306EAD1
:104460000262104328600868626920F0C0001043AF
:1044700008600A68A06922F0200202430A60281D31
:104480000A6822F010020A6002684FF6F873E469C5
:104490009A4342EAC40202600868B9F1000F40F092
:1044A00010020A6011D00868B9F1010F11D040F470
:1044B00000100860D8F80000444640F08060C8F85A
:1044C0000000FDF72BFC05460DE0086840F40020D5
:1044D000EFE740F48010ECE7FDF720FC401B0228DA
:1044E00001D903208DE720680001F5D5504688E703
:1044F000284402582DE9F047454D044689464FF0BF
:10450000000A2868C04380070AD0414E283E306820
:1045100020F080503060FDF701FC0746B04608E00F
:104520000120BDE8F08700BFFDF7F8FBC01B0228A3
:1045300067D8D8F800008000F6D4208829684FF4A6
:10454000FE0721F07C713E0241EA00502860207A8B
:10455000A389B4F804C040022D4D2D495B1E227C76
:10456000ACF1010C1835091DA0F5007080B2521E87
:10457000CCF3080C07EA034340EA0C00184306EAB0
:104580000262104328600868626920F440601043AA
:1045900008600A68A06922F4007202430A60281DBC
:1045A0000A6822F480720A6002684FF6F873E469C0
:1045B0009A4342EAC40202600868B9F1000F40F46D
:1045C00080720A6011D00868B9F1010F11D040F073
:1045D00080700860D8F80000444640F08050C8F869
:1045E0000000FDF79BFB05460DE0086840F48000E5
:1045F000EFE740F40000ECE7FDF790FB401B0228DA
:1046000001D903208DE720688000F5D5504688E762
:10461000284402587047FDF787BB000070B59CB076
:104620004C216846FCF762F9202113A8FCF75EF9DB
:104630000220FDF75FFC214800242149026842F472
:104640004042026002680A6842F001020A6009689A
:1046500001F001011B9101688904FCD50DF1280CC2
:10466000022009900521C0228CE80700C6030F90A4
:1046700008250D9001230E90CDE91054CDE90036A8
:1046800068461294FEF794FD08B172B6FEE740202A
:104690001A903F210301CDE916500322CDE91803FA
:1046A00013AB13A883E816000421FEF779FA00285B
:1046B00001D072B6FEE71CB070BD00001848025869
:1046C0002C0400583348F0B5334A016841F47001B6
:1046D0000160106800F00F00072804D2106820F075
:1046E0000F00C01D10602D4900202C4C10340B68A9
:1046F0002B4D43F001030B6020600B682B400B60D7
:10470000136803F00F03072B04D9136823F00F037A
:10471000DB1D1360214C234A1834234B261D371D03
:1047200020601E4C214D28343060261D3860371D16
:1047300023603B1D35601C1D3A60251D2E1D186031
:10474000331D22602860326018600A68134B184CD1
:1047500022F4802260330A60186020686FF30F0033
:10476000B0F1005F03D213490120C1F808010B48E2
:10477000D4300168C9040BD4026843F2D2010E4B55
:1047800042F4805202601960016821F48051016096
:10479000F0BD000088ED00E0002000520044025807
:1047A0007FEDF6EA80020101000202020000FF0133
:1047B0000010005C008000510040005230B5416E96
:1047C000B9B101680D4B03F108048A688968C2F326
:1047D0004262490F5D5C615C2D01B5FBF1F1A0F80F
:1047E0006A10995CA25C0901B1FBF2F1A0F86810B3
:1047F00030BD0121A0F86A10F8E70000DE51000882
:1048000090F82810090706D50168836B4A6822F4DE
:1048100000421A434A6090F82810C90706D0016880
:10482000C36A4A6822F400321A434A6090F828109A
:10483000890706D50168036B4A6822F480321A435F
:104840004A6090F82810490706D50168436B4A680A
:1048500022F480221A434A6090F82810C90606D52F
:104860000168C36B8A6822F480521A438A6090F808
:104870002810890606D50168036C8A6822F4005264
:104880001A438A6090F82810490611D50168436CD4
:104890004A6822F480121A434A60416CB1F5801FC5
:1048A00006D10168836C4A6822F4C0021A434A6048
:1048B00090F82810090606D50168C26C486820F4F3
:1048C00000201043486070472DE9F8430025044656
:1048D000C0F89050FDF722FA8046206820266FF03D
:1048E0007E470068000713D5002243463104204666
:1048F000009700F03FFA58B1216851E8000F20F00E
:10490000800041E80002002AF6D1C4F8886021E066
:1049100020680068400722D5002243464FF48001FA
:104920002046009700F026FAC8B1206850E8001F22
:1049300021F4907140E80012002AF6D12068083076
:1049400050E8001F21F0010140E80012002AF5D1D3
:10495000C4F88C60032084F88450BDE8F883C4F860
:104960008860C4F88C60E5662567002084F8845070
:10497000F3E7000010B5026852E8001F21F49071BF
:1049800042E80013002BF6D10E4B0268083252E8C1
:10499000001F194042E80014002CF6D1C16E012915
:1049A00008D1026852E8001F21F0100142E800130C
:1049B000002BF6D100212022C0F88C20C16641676F
:1049C00010BD0000FEFFFFEF2DE9F04304468068B4
:1049D000D84E87B0D84B2168D4E90427D4F81CC03E
:1049E00010430A68002547EA0C0738433240024367
:1049F0000A602068E268416821F440511143416037
:104A00002268A1699A4201D0206A01439768DFF8C1
:104A10002CC3CB4ECB4807EA0C070F4397602168A5
:104A2000676ACA6A22F00F023A43CA622268B24237
:104A30000ED1006800F03800182873D047DCB8B3F6
:104A4000082879D010286FD178E028287ED17BE023
:104A5000BD498A4209D1006800F00700062875D2D6
:104A6000DFE800F0546A6C6E7072B8498A4209D16E
:104A7000006800F00700062868D2DFE800F0475D14
:104A80005F616365B2498A4209D1006800F007009E
:104A900006285BD2DFE800F03A5052545658AD4930
:104AA0008A420BD1006800F0070006284ED200E0D1
:104AB00010E0DFE800F02B4143454749A6498A4210
:104AC0000AD1006800F03800182839D0B7DD202856
:104AD000BBD13CE001203AE0A0498A4209D10068FC
:104AE00000F00700062831D2DFE800F01026282A5F
:104AF0002C2E9B498A420BD1006800F00700062843
:104B000024D2DFE800F003191B1D1F2100201EE046
:104B10009A421BD18B48001D006800F00700062850
:104B200014D202E00CE007E010E0DFE800F003053B
:104B300007090B0D02200AE0042008E0082006E027
:104B4000102004E0202002E0402000E08020854981
:104B5000DFF814829A42854A4FF400434FEA211746
:104B60004FF000064ED110281AD006DC022809D0DA
:104B700004280BD008287CD10DE020283ED0402806
:104B800077D13DE0FDF7E0F9014610E06846FDF71A
:104B9000EDF901990BE003A8FDF78AFA049906E004
:104BA0001068800605D51068C0F3C100C140002917
:104BB00070D0606A676838F8102007EB4703B1FBD4
:104BC000F2F0834255D8B0EB073F52D80023084695
:104BD0001946FBF7DFFB02467808130E120243EA80
:104BE000012110183A4671410023FBF7D3FB604ABC
:104BF000A0F5407191423CD821688FE03946D8E752
:104C00001946D6E7D4F81CC04FF6EF799C4546D13B
:104C1000082819D005DC58B101280CD0042875D11A
:104C20000DE0102815D0202835D040286ED134E072
:104C3000FEF7FEF901E0FEF70DFA014610E06846C6
:104C4000FDF794F901990BE003A8FDF731FA0499F7
:104C500006E01068800604D51068C0F3C100C140AA
:104C6000C1B1636A606838F81330B1FBF3F14900F1
:104C700000E04BE001EB5001B1FBF0F0A0F11001BE
:104C8000494543D84FF6F0732168C0F342021840FB
:104C9000104343E043E03946E3E71946E1E70828DB
:104CA00019D005DC58B101280CD004282ED10DE014
:104CB000102815D020282BD0402827D12AE0FEF735
:104CC000B7F901E0FEF7C6F9014610E06846FDF7C6
:104CD0004DF901990BE003A8FDF7EAF9049906E004
:104CE0001068800604D51068C0F3C100C140B1B19E
:104CF000636A606838F81330B1FBF3F101EB5001DF
:104D0000B1FBF0F0A0F11001494505D9012506E0FD
:104D10003946EDE71946EBE7216880B2C86001200B
:104D2000A4F86A00A4F8680028466667A66707B07A
:104D3000BDE8F083F369FFCF000C0058FFF4FF11CA
:104D40000010014054440258004400400048004014
:104D5000004C00400050004000140140007800402A
:104D6000007C00400090D003C65100080044025867
:104D7000FFFC0F002DE9F047994617460D46044603
:104D8000089E4FF0000833E0701C31D0FCF7C6FFDE
:104D9000A0EB0900B04218D8BEB1206801684907ED
:104DA00026D5802D24D0402D22D0C169C9430907C2
:104DB0000DD4082505622046FFF7DCFDC4F89050AD
:104DC000012084F88480BDE8F0870320FBE7C069F8
:104DD000C04300050CD421684FF4006008622046EF
:104DE000FFF7C8FD2021C4F8901084F88480ECE718
:104DF0002068C06935EA000004D00020B842C3D062
:104E00000020E0E70120F9E730B129B113460A4656
:104E100001460248FEF7BEBD012070471400002481
:104E200038B131B10A464FF0FF3301460248FEF770
:104E300025BE0120704700001400002410B50400B6
:104E400007D0FBF7B5FC81B22046BDE81040FFF764
:104E5000E7BF012010BD000001A0FCF757FAFEE7F4
:104E600055736167654661756C7400000907002819
:104E70004FEA116104DB00F1E02080F80014704774
:104E800000F00F0000F1E02080F8141D70470000D2
:104E9000BFF34F8F0548064A016801F4E0611143F2
:104EA0000160BFF34F8F00BFFDE700000CED00E095
:104EB0000400FA0530380A2801D20120704700208A
:104EC0007047000098B060216846FBF70FFDFEF7C1
:104ED00037FEFCF731FFFFF7A1FBFEF785FEFEF77B
:104EE000D7FE4FA0FFF7AAFF554956A0FBF796FF44
:104EF0000020FBF7A7FF6846FEF736FF002877D0B3
:104F000057A0FFF79BFF6846FBF7A8FF6846FBF733
:104F100099FF6846FCF71AF859A0FFF78FFF68461B
:104F2000FBF79CFF6846FBF78DFF6846FBF7FAFD31
:104F30005CA0FFF783FF6846FBF790FF6846FBF72E
:104F400081FF059801285AD0022858D000216846D0
:104F5000FFF73EF904465DA0FFF770FF6846FBF7D8
:104F60007DFF6846FBF76EFF012C4DD06846FCF7CD
:104F700033F8050050D0FCF7D9FA04465DA0FFF7DE
:104F80005DFF2846FBF768FEFFF758FF58A0FFF7C4
:104F900055FF5FA0FFF752FF1420FCF7A7FB256821
:104FA00066686548FEF744FCFDF728FFFCF762FBE6
:104FB0004FF0E020002101614161816172B6084635
:104FC0004FF0FF31820002F1E022401C0828C2F8B5
:104FD0008011C2F88012F5D358480460BFF34F8F98
:104FE000BFF36F8F85F3088862B6B047FEE7FFE72F
:104FF00053A0FFF723FF6846FBF744FE8FE75CA052
:10500000FFF71CFF0121A2E763A0FFF717FF1420A1
:10501000FCF76CFBFFF73CFF6846FBF7CBFD00009D
:105020000D0A5B424F4F545D20626F6F746C6F616D
:1050300064657220737461727465640D0A00000007
:1050400000001E085B424F4F545D206D6574616423
:1050500061746120616464726573733A20000000BA
:105060005B424F4F545D206F7461206D65746164C5
:10507000617461206C6F6164206F6B0D0A00000029
:105080005B424F4F545D206D6574616461746120B3
:1050900061667465722073616E6974697A650D0A60
:1050A000000000005B424F4F545D206D65746164E9
:1050B000617461206166746572206170706C792022
:1050C0007377697463680D0A000000005B424F4FFC
:1050D000545D206D65746164617461206265666F02
:1050E00072652073656C65637420746172676574A2
:1050F0000D0A00005B424F4F545D2073656C656381
:10510000746564207461726765743A200000000061
:105110005B424F4F545D2074617267657420696D06
:105120006167652076616C69642C206A756D7069B1
:105130006E672E2E2E0D0A001400002408ED00E0EC
:105140005B424F4F545D206F7461206D65746164E4
:1051500061746120696E76616C69642C207265628D
:1051600075696C642064656661756C740D0A000075
:105170005B424F4F545D20666F726365206F7461B0
:10518000206D6F6465206279207570677261646557
:1051900020666C61670D0A005B424F4F545D206FC3
:1051A00074612066696E69736865642C207265623B
:1051B0006F6F74206E6F770D0A0000004FF0407023
:1051C000E1EE100A7047010002000400060008002A
:1051D0000A000C00100020004000800000010101C6
:1051E0000103070100000804020408010101000096
:1051F000000001020304010203040607080930311C
:1052000032333435363738394142434445464030ED
:10521000580030313233343536373839616263649F
:1052200065664030780004000008000000000000BF
:1052300000020001000010005B424F4F545D20252A
:105240007320696D6167655F76616C69643D256C8B
:1052500075206D657461646174615F76616C696409
:105260003D256C7520616464723D30782530386C62
:10527000582073697A653D30782530386C580D0AAE
:10528000000000005B424F4F545D206D6574616407
:1052900061746120617070315F76616C69643D2575
:1052A0006C7520617070325F76616C69643D256C4D
:1052B0007520617070315F73697A653D3078253093
:1052C000386C5820617070325F73697A653D307850
:1052D0002530386C580D0A005B424F4F545D206DED
:1052E00065746164617461207365713D256C75201E
:1052F0006163746976653D257328256C7529207373
:1053000077697463683D257328256C75292075704D
:1053100067726164653D256C75206C6173745F65AF
:1053200072726F723D30782530386C580D0A00006B
:105330000D0A5B4641554C545D2025732048465369
:10534000523D30782530386C5820434653523D301A
:10535000782530386C58204D4D4641523D307825E7
:1053600030386C5820424641523D30782530386CF8
:10537000580D0A005B424F4F545D206D65746164A7
:105380006174612073617665202573207374617484
:1053900075733D256C75207365713D256C752061B5
:1053A00063746976653D256C7520737769746368ED
:1053B0003D256C7520757067726164653D256C755F
:1053C000206372633D30782530386C580D0A000038
:1053D000F05300080000002414000000D40200086C
:1053E00004540008140000244C070000F0020008D8
:1053F0000100000010000000000000000090D00339
:045400000090D00345
:040000050800029954
:00000001FF
